:100000000C9432020C944F020C944F020C944F0249
:100010000C944F020C944F020C944F020C944F021C
:100020000C944F020C94300C0C944F020C944F0221
:100030000C94A8150C944F020C944F020C944F0290
:100040000C944F020C944F020C946C0B0C944F02C6
:100050000C94BF040C944F020C9489040C944F022E
:100060000C94360D0C944F020C94DC140C944F023B
:100070000A0A0D004E65757472616C004865616412
:10008000696E67486F6C64000A0D5374657565721C
:10009000756E673A20004F4B0A0D000A0D416267EA
:1000A0006C65696368204C756674647275636B7304
:1000B000656E736F722E2E000A0D42656E75747A2E
:1000C0006520506172616D657465727361747A2028
:1000D0002564000A0D414343206E69636874206102
:1000E000626765676C696368656E21000A0D496E19
:1000F00069742E20454550524F4D3A2047656E6534
:1001000072696572652044656661756C742D506115
:1001100072616D657465722E2E2E000A0D3D3D3D97
:100120003D3D3D3D3D3D3D3D3D3D3D3D3D3D3D3DFF
:100130003D3D3D3D3D3D3D3D3D3D3D000A0D466C57
:1001400069676874436F6E74726F6C0A0D486172F0
:1001500064776172653A25642E25640A0D536F66D3
:1001600074776172653A5625642E256425632000F4
:100170002E0048693A253469202043663A253469BF
:10018000200047733A253469202047693A253469AD
:1001900020004E693A2534692020526F3A2534698F
:1001A000200045787465726E436F6E74726F6C20B8
:1001B000200052616E67653A2533692D2533690049
:1001C0005374656C6C756E673A202533690053650E
:1001D00074706F696E7420202533690053657276E0
:1001E0006F202000506F7469343A20202533690055
:1001F000506F7469333A202025336900506F746959
:10020000323A202025336900506F7469313A20203A
:100210002533690053746172743A20202020202510
:100220003569004D657373776572743A2020253502
:1002300069005269636874756E673A2020253569D4
:10024000004B6F6D706173732020202020202000F0
:10025000456D70662E506567656C3A2535690053AB
:1002600070616E6E756E673A202025356900486FA3
:1002700063682025346920282533692900526F6C72
:100280006C20253469202825336929004E69636B69
:100290002025346920282533692900414343202D36
:1002A0002053656E736F720047696572202534694B
:1002B00020282533692900526F6C6C202534692071
:1002C0002825336929004E69636B2025346920286D
:1002D000253369290047696572202534692028255E
:1002E00033692900526F6C6C20253469202825332E
:1002F0006929004E69636B202534692028253369FC
:1003000029004779726F202D2053656E736F72003C
:1003100050333A253469202050343A25346920007E
:1003200050313A253469202050323A253469200072
:1003300047733A253469202047693A2534692000FB
:100340004E693A2534692020526F3A2534692000DD
:100350004B373A25346920204B383A253469200040
:100360004B353A25346920204B363A253469200034
:100370004B333A25346920204B343A253469200028
:100380004B313A25346920204B323A25346920001C
:100390004B6F6D706173733A2020202535690052D0
:1003A0006F6C6C3A202020202020253569004E6992
:1003B000636B3A20202020202025356900616B7472
:1003C0002E204C6167650048F668656E726567654A
:1003D0006C756E67004B65696E6520004F66662020
:1003E00020202020203A20253569004C7566746451
:1003F0007275636B3A2025356900536F6C6C486FDA
:100400006568653A2025356900486F6568653A205A
:10041000202020202535690028632920486F6C673B
:10042000657220427573730053657474696E673A20
:10043000202564200048573A5625642E2564205311
:10044000573A25642E25642563002B204D696B7275
:100450006F4B6F70746572202B005B25695D005BCC
:1004600025695D0011241FBECFEFD0E1DEBFCDBFF7
:1004700014E0A0E0B1E0EEEFF9E702C005900D92C4
:10048000A43AB107D9F718E0A4EAB4E001C01D927C
:10049000AE3DB107E1F70E948A020C94FE3C0C9439
:1004A000000022E030E0D9010E94EA3C802D863035
:1004B00028F082E0D901082E0E94F23C90E00895D5
:1004C000FB01282F863008F025E0429FD00111243F
:1004D000AC59BF4F842F90E0019724F001900E9407
:1004E000F23CFACFA2E0B0E0022E0E94F23C089566
:1004F000FB01863008F085E0489FD0011124AC59FB
:10050000BF4F842F90E0019724F00E94EA3C0192B3
:10051000FACF0895EF92FF921F93CF93DF9314B811
:1005200015B8189B02C08BE001C08AE080930001DF
:1005300081E887B98FEF88B98BE184B981E085B90B
:100540008EE38AB9579A87EF8BB984B7877F84BFC8
:10055000809160008861809360001092600080ED5F
:1005600097E09093C6048093C50410925C051092A6
:100570005B0510921A081092190810925A051092F1
:1005800059051092580510925705809100018A3044
:1005900011F4289801C0289A0E94D30C0E94940656
:1005A0000E9493150E94300D0E94C21478941092FC
:1005B0000C0784E480930D0787E080930E07209159
:1005C0000001822F6AE00E94433C492F50E0822FB5
:1005D0000E94433C90E024E630E03F932F9324E4D4
:1005E00030E03F932F931F921F925F934F939F93FF
:1005F0008F938CE391E09F938F931F920E94C80882
:100600008BE191E09F938F931F920E94C808299AD3
:10061000A1E0B0E00E94EA3C802D2DB73EB7205FFC
:100620003F4F0FB6F8943EBF0FBE2DBF8534A9F1E2
:100630008CEE90E09F938F931F920E94C8080E94B7
:10064000A723C0E0D0E00F900F900F9081E4E82E38
:1006500088E0F82E1C2FC23039F0C33019F40E9404
:10066000852204C0C43010F00E94162347E4B7016D
:10067000812F0E9460022196C630D10559F783E090
:1006800022E030E0D901082E0E94F23C85E421509E
:100690003040D901082E0E94F23CC4E0D0E0DE01D7
:1006A0000E94EA3C802D853050F083ED90E09F93CE
:1006B0008F931F920E94C8080F900F900F9022975F
:1006C000DE010E94EA3C802D863028F082E0DE01C7
:1006D000082E0E94F23C47E461E478E00E94780230
:1006E000DE010E94EA3C802D863028F082E0DE01A7
:1006F000082E0E94F23C90E09F938F9388EB90E04D
:100700009F938F931F920E94C808809149080F9071
:100710000F900F900F900F9080FD03C0C8EED3E0B4
:1007200020C08BE990E09F938F931F920E94C8088E
:1007300088EE93E00E941B0CEC010E94CE0F0F90FC
:100740000F900F90CE010E94240C8823D9F386E9E4
:1007500090E09F938F931F920E94C8080F900F9074
:100760000F900E940F21809100018A3011F4289887
:1007700001C0289A80ED97E09093C6048093C50449
:1007800085E58093160788E890E09F938F931F92EA
:100790000E94C808809149080F900F900F9082FF27
:1007A00003C08CE790E002C084E790E09F938F93B2
:1007B0001F920E94C8080F900F900F9080E790E062
:1007C0009F938F931F920E94C8080E94171088E879
:1007D00093E190938603809385030F900F900F9081
:1007E0008091C2048823E1F31092C2040E9438244D
:1007F0000E94C820209100012A3011F4289801C0DD
:10080000289A80910301882321F08150809303016D
:1008100012C01092B4041092B504109220071092E6
:1008200079051092780510927B0510927A05109246
:100830007D0510927C0580915605882329F08091D2
:1008400056058150809356058091850390918603CB
:10085000892B01F585E090E09093860380938503D2
:100860000E946D1580910403909105038F5F9F4F47
:10087000F9F480915F058823D9F080E197E29093A5
:10088000C6048093C50480E890E0909305038093AC
:1008900004030EC080918503909186030197909385
:1008A0008603809385032A3011F4289801C0289A82
:1008B0008091C204882311F40E94AF060E9457075A
:1008C000CE010E94240C882309F48ACF20910803CA
:1008D000309109038091590890E0281739079CF45A
:1008E00080910403909105038F5F9F4F61F480E72F
:1008F00097E19093C6048093C50480E093E09093C1
:1009000005038093040384E690E00E941B0CEC0135
:1009100067CF1F920F920FB60F9211248F939F9360
:10092000EF93FF93809101018823E1F48091BE044D
:100930009091BF0401969093BF048093BE04FC0184
:10094000E252FA4FE081ED3019F08639910539F421
:100950001092BF041092BE0481E080930101E093E5
:10096000C60004C01092BF041092BE04FF91EF9124
:100970009F918F910F900FBE0F901F9018951F920F
:100980000F920FB60F9211242F933F934F938F9393
:100990009F93AF93BF93CF93DF93EF93FF93809198
:1009A000C6008093A8044091B904463910F0109213
:1009B000B8048091A8048D3009F05CC08091B8041F
:1009C000823009F057C01092B804A42FB0E0FD01A6
:1009D000E15EF84F3081ED01C05ED84F28818091F3
:1009E000BC049091BD04831B9109821B91099F70E7
:1009F0009093BD048093BC049C0196E036952795A6
:100A00009A95E1F7235C2093BB04982F9F73935C26
:100A10009093BA048081281729F48881981711F4DB
:100A200091E006C08091AB048F5F8093AB0490E0AF
:100A30008091A904882309F065C0992309F462C054
:100A400081E08093A9044093AC04AF5DB84F8DE082
:100A50008C9380912307823509F054C088E190E09F
:100A60002CE00FB6F894A895809360000FBE2093F9
:100A7000600048C08091B8048130D9F0813018F00E
:100A80008230F1F521C08091A804833239F480913D
:100A9000A904882319F481E08093B8048091A80404
:100AA0008093210781E08093B9048091A80490E0AD
:100AB00022C082E08093B804E42FF0E08091A80483
:100AC000EF5DF84F808309C0E42FF0E08091A80427
:100AD000EF5DF84F8083463920F44F5F4093B904AF
:100AE00002C01092B8042091A8048091BC04909197
:100AF000BD04820F911D9093BD048093BC0402C07D
:100B00001092B804FF91EF91DF91CF91BF91AF9117
:100B10009F918F914F913F912F910F900FBE0F900A
:100B20001F901895DC0120E030E040E050E008C064
:100B3000FA01E252FA4F8081280F311D4F5F5F4F5B
:100B40004A175B07A9F73F70C90136E0969587956C
:100B50003A95E1F7835CFD01E252FA4F80831196EA
:100B60002F73235CFD01E252FA4F2083A152BA4F4A
:100B70008DE08C93109201018091DE058093C60078
:100B800008951F93CF93DF93EA01722F93E290931E
:100B9000DE056093DF058093E005A3E0B0E060E050
:100BA0004FC0FE01E60FF11D90816F5F715019F487
:100BB00010E040E00FC0FE01E60FF11D40816F5FC5
:100BC000715011F410E006C0FE01E60FF11D108116
:100BD0006F5F7150892F86958695835CFD01E25287
:100BE000FA4F808350E09A0184E0369527958A95E4
:100BF000E1F7892F90E083709070F4E0880F991FDF
:100C0000FA95E1F7282B235CFD01E152FA4F20838E
:100C1000812F82958695869583704F705070440F12
:100C2000551F440F551F842B835CFD01E052FA4F82
:100C300080831F73135CFD01EF51FA4F10831496EC
:100C4000772309F0AECFCD010E949205DF91CF91BD
:100C50001F9108951F93CF93DF93EC0170E0A22FB3
:100C6000B0E0129748C0E42FF0E0EF5DF84F30811C
:100C70004F5FE42FF0E0EF5DF84F50814F5FE42FBE
:100C8000F0E0EF5DF84F10814F5FE42FF0E0EF5D93
:100C9000F84F20814F5F842F90E0A817B90774F1B7
:100CA0005D53FE01E70FF11D852F82958F703D5337
:100CB000330F330F382B3083613001F1912F9D5367
:100CC0007F5FFE01E70FF11D71505295507F892F14
:100CD00086958695582B508363506F3F79F07E5FE1
:100CE000FE01E70FF11D9295990F990F907C2D53FE
:100CF000922B90837F5F662309F0B5CFDF91CF9170
:100D00001F9108951F93182F8A3019F48DE00E94C7
:100D100082068091C00085FFFCCF1093C60080E062
:100D200090E01F9108950895E1ECF0E088E1808360
:100D3000A0ECB0E08C9182608C938081806880838D
:100D40008081806480838AE28093C40088EC90E094
:100D50000E941B0C90930B0780930A0708958091C3
:100D60000101882309F4A2C08091A404882371F0B2
:100D700080910101882351F06091DD052BE046E16F
:100D800057E087E40E94C1051092A40480910A07ED
:100D900090910B070E94240C882321F48091A604D3
:100DA0008823B1F080910101882391F06091DD05E5
:100DB00022E447EB57E084E40E94C1051092A604A8
:100DC00084EF91E00E941B0C90930B0780930A071D
:100DD000609102016F3F89F0462F50E094E0440F8C
:100DE000551F9A95E1F74C5F5E4F605D20E181E40D
:100DF0000E94C1058FEF809302019091F90799231A
:100E0000A1F080910101882381F083E28093DE05C7
:100E10009093DF058DE08093E00510920101109220
:100E2000F9078091DE058093C6008091A504882390
:100E300059F180910101882339F10E94201010920C
:100E4000A5043091AE04932F9F5F9093AE0494302D
:100E500021F08091AF04882359F026E145E158E064
:100E600060E084E30E94C1058FEF8093AE040CC064
:100E700044E1949FA0011124465E5C4F24E160E0B0
:100E8000832F8F5C0E94C1058091A704882371F095
:100E900080910101882351F06091DD052AE04CE04A
:100EA00057E086E50E94C1051092A70408951F939C
:100EB000CF93DF93CDB7DEB722970FB6F894DEBF9E
:100EC0000FBECDBF8091A904882309F4FEC08FEF27
:100ED00080930301809123078B3609F479C08C3607
:100EE00088F48336D1F1843630F48136C1F082360D
:100EF00009F0E9C020C0873609F47BC0883609F0C4
:100F0000E2C042C0813709F478C0813708F49DC03F
:100F1000843709F454C0863709F0D5C066C02091E3
:100F2000AC0443E062E0CE0101960E942A0689816A
:100F300080930201C8C02091AC0443E06BE086E1DD
:100F400097E00E942A068091ED0490911807892B62
:100F50008093ED0480911F0745C02091AC0443E0CD
:100F60006BE086E197E00E942A068091ED04909163
:100F70001807892B8093ED0480911F078093F90750
:100F800081E08093A6049FC02091AC0443E062E01E
:100F9000CE0101960E942A068091ED049981892B49
:100FA0008093ED048A818F3F21F481E08093AF0428
:100FB00002C01092AF0481E08093A50484C0209108
:100FC000AC0443E064E080EB94E00E942A067BC01E
:100FD0002091AC0443E064E084EB94E00E942A0694
:100FE0008091B7048093F9076EC081E08093A704D5
:100FF0006AC081E08093A40466C02091AC0443E001
:1010000062E0CE0101960E942A0689818F3F89F015
:10101000863010F085E0898347E461E478E08981D7
:101020000E9478026091DD05898127E441E458E05F
:1010300008C01091DD050E94510227E441E458E008
:10104000612F855B0E94C1053EC02091AC0443E046
:1010500067E481E498E00E942A068091230747E430
:1010600061E478E08B560E946002809123078B56E2
:10107000A2E0B0E0082E0E94F23C60916C0870E0A3
:1010800080E090E024EC39E040E050E00E94243C15
:1010900060938703709388038093890390938A03F6
:1010A00060916D0870E080E090E00E94243C6093C5
:1010B0008B0370938C0380938D0390938E030E9417
:1010C00051020E9470221092A90422960FB6F89441
:1010D000DEBF0FBECDBFDF91CF911F910895982F36
:1010E0008091FA07813069F48091EC04E82FF0E0F8
:1010F000E65EFC4F90838F5F8093EC0421E030E04C
:1011000005C0892F0E948206282F30E0C90108956A
:101110001F93182F04C080E30E946F08115011160E
:10112000D4F31F9108951F93182F04C080E20E94EA
:101130006F0811501116D4F31F9108950F931F9348
:10114000CF93DF938C01EB0108C0F8010F5F1F4FB5
:10115000E4918E2F0E946F0821972097B1F7DF91BD
:10116000CF911F910F9108950F931F93CF93DF930A
:101170008C01EB0106C0F80181918F010E946F087C
:1011800021972097C1F7DF91CF911F910F9108957B
:101190002F923F924F925F926F927F928F929F9287
:1011A000AF92BF92CF92DF92EF92FF920F931F9375
:1011B000CF93DF93CDB7DEB7E5970FB6F894DEBFD8
:1011C0000FBECDBF2B968FAD2B978093FA07CE0124
:1011D000835B9F4F9B838A832D964EAC5FAC2D978C
:1011E0001EA61FA618AA19AA9E01225D3F4F3DAB5D
:1011F0002CAB820102C00F5F1F4FF801F490FF205B
:1012000019F0F5E2FF16B9F7B8016419750919F07C
:10121000C2010E949E08FF2009F445C228010894DB
:10122000411C511C1982AA81BB8133241BAA2FEFB8
:101230002AABF2010894411C511CB490632D70E05C
:101240006170707035E7B31621F08B2D806288379E
:10125000C9F46115710559F02D913D914D915C9145
:1012600013972EA73FA748AB59AB14960BC08D918F
:101270009C9111979C0140E050E02EA73FA748ABFE
:1012800059AB129630E2B31621F48981882389F68E
:101290001CC043E2B41611F458E055C08AE2B816F7
:1012A00021F09DE2B91671F408C0FD011296E081AB
:1012B000EBABE7FFBECFE195EBABE0E13E2AFFED04
:1012C0003F22B7CF2BE2B21611F4B982B2CF3EE281
:1012D000B31699F5F2010894411C511C84918A328D
:1012E00021F0B82E20E030E01DC0FD0112964081B3
:1012F000518157FF02C04FEF5FEF4AAB9ACFC90150
:1013000053E0880F991F5A95E1F7220F331F280FDA
:10131000391F2B0D311D20533040F2010894411C20
:10132000511CB4908B2D80538A3048F3A90137FFAC
:1013300002C04FEF5FEF4AAB85CF40E3B41629F40C
:1013400034FC77CF50E2352A74CF8B2D815389300E
:10135000D8F420E030E0C90103E0880F991F0A9516
:10136000E1F7220F331F280F391F2B0D311D20539A
:101370003040F2010894411C511CB4908B2D8053D5
:101380008A3048F32BAB5ECF88E6B81619F494E0A8
:10139000392A4FCFECE6BE1619F4F1E03F2A49CFC7
:1013A000BB83AA8323E6B21639F41296BB83AA83C1
:1013B00012978C918E8322C134E4B31639F044E63F
:1013C000B41631F059E6B516A9F502C081E0382A05
:1013D00030FE08C01496BB83AA835E914E913E9165
:1013E0002E910AC01296BB83AA839E918E919C0176
:1013F000442737FD4095542F2EA73FA748AB59AB44
:101400008EA59FA5A8A9B9A9BB238CF42EA53FA59D
:1014100048A959A950954095309521953F4F4F4F78
:101420005F4F2EA73FA748AB59AB8DE28983BAE047
:101430002B2E80C03FE4B31621F04FE6B41631F4F2
:1014400002C051E0352AA8E02A2E73C080E7B81602
:1014500089F41296BB83AA839E918E919C0140E0F1
:1014600050E02EA73FA748AB59AB30E4332AF8E74A
:10147000BF2E5DC043E7B416D1F51296BB83AA8395
:10148000DE90CE90C114D10489F488E28E838EE67A
:101490008F8385E788878CE689878A8789E28B87AF
:1014A0001C86E6E0CE2ED12CCC0EDD1E5AA957FDAF
:1014B00014C0452F552747FD509560E070E0C601E8
:1014C0000E94FC39009711F4FAA80EC0F82EFC18FF
:1014D0008AA98F154CF4F82E07C0F6010190002060
:1014E000E9F73197FE2EFC18198240E090C095E58F
:1014F000B91621F0A5E7BA1631F402C0B1E03B2AD3
:101500007AE0272E16C0E8E5BE1621F0F8E7BF16F0
:1015100009F070C033FE0BC02EA53FA548A959A9FC
:10152000211531054105510511F030E4332A60E100
:10153000262E19824AA947FD02C05FED35228EA5ED
:101540009FA5A8A9B9A90097A105B10549F49AA931
:10155000992331F45EE2C52ED12CCC0EDD1E46C09F
:101560006EA47FA488A899A84EE2C42ED12CCC0EDC
:10157000DD1EE22CFF2400E010E06EA57FA588A907
:1015800099A9A80197010E94763C6A3020F430E3C3
:10159000A32EA60E08C027E5A22EA60EA8E5BA1611
:1015A00011F4BFEDAB22F601A2926F016EA57FA5EB
:1015B00088A999A9A80197010E94763C2EA73FA768
:1015C00048AB59AB6E147F048006910618F03901C0
:1015D0004A01D3CFF8E02F1649F433FE07C020E3C9
:1015E000A21621F080E3D6018E936D01FCA8FC18B1
:1015F0004AA90DC0BB2009F456C0BE82198296E0EC
:10160000C92ED12CCC0EDD1E40E0FF24F394E42E35
:10161000EF18E7FCEE248981882319F08F2D8F5F66
:1016200006C036FC02C08F2D02C08F2D8E5FA82E03
:10163000AE0C032D10E080E3882E912C80229122A5
:101640008114910421F48BA98A190E94930889813D
:10165000882329F061E070E0CE01019609C006FF01
:1016600009C080E38C83BD8262E070E0CE01049605
:101670000E94B408B0E28B16910421F48BA98A1958
:101680000E9488088E2D0E9488086F2D772767FD9D
:101690007095C6010E94B40804FFABCD8BA98A19CE
:1016A0000E949308A6CDE5960FB6F894DEBF0FBE54
:1016B000CDBFDF91CF911F910F91FF90EF90DF9001
:1016C000CF90BF90AF909F908F907F906F905F90E2
:1016D0004F903F902F9008951F920F920FB60F9248
:1016E00011242F933F935F936F937F938F939F93D7
:1016F000AF93BF938091C90481508093C9048F3FF9
:10170000B9F489E08093C904809107038F5F8170E9
:1017100080930703882319F481E08093C2048091A9
:10172000C0049091C10401969093C1048093C004B9
:101730008091C5049091C6040297B8F08091C504C9
:101740009091C60401979093C6048093C50480913C
:10175000C5049091C60420910403309105038223AF
:101760009323892B09F053C006C08FEF9FEF90930E
:10177000050380930403809100018A3039F404C08A
:101780005A9A05C0479A03C05A9801C04798809159
:10179000490883FF42C0349B0AC08091C3049091E2
:1017A000C40401969093C4048093C30436C080910E
:1017B000C3049091C404892B79F08091C304909163
:1017C000C404805A9F4040F48091C3049091C404A3
:1017D0009093470580934605809146059091470573
:1017E0002091480530914905845E9D4F821B930BE3
:1017F00068E671E00E94633C845B904090934B05E7
:1018000080934A051092C4041092C30406C08091CC
:1018100000018A3009F0B6CFB3CFBF91AF919F914D
:101820008F917F916F915F913F912F910F900FBE9C
:101830000F901F9018952091C0043091C1042F5F24
:101840003F4F820F931F08952091C0043091C1042F
:10185000821B930B892F99278695807490E00895B9
:101860001F920F920FB60F9211241F932F933F9345
:101870004F935F936F937F938F939F93AF93BF9398
:10188000CF93DF93EF93FF93809106038150809372
:1018900006038F3F09F06FC083E88093B00080910A
:1018A0009C03C82FD0E0D093C804C093C704809194
:1018B00076081091630880FF1FC060910A0570913F
:1018C0000B0580910C0590910D0520E830E040E07B
:1018D00050E00E94983CCA01B901212F30E040E05D
:1018E00050E00E94243C20E032E040E050E00E94C2
:1018F000983CC20FD31F1EC060910A0570910B0562
:1019000080910C0590910D0520E830E040E050E01A
:101910000E94983CCA01B901212F30E040E050E01C
:101920000E94243C20E032E040E050E00E94983CDD
:10193000C21BD30BD093C804C093C7042091C70423
:101940003091C8048091640890E02817390734F07A
:101950008091650890E08217930724F49093C8045F
:101960008093C7048091C7048093B3008091660878
:101970008093060304C083E08093B0005F98FF91DA
:10198000EF91DF91CF91BF91AF919F918F917F9117
:101990006F915F914F913F912F911F910F900FBECB
:1019A0000F901F9018958091C0049091C1040B96E0
:1019B0009093CB048093CA0482E085BD83EA84BD02
:1019C00017BC88E788BD96E096BD83EC8093B00095
:1019D0009093B100E0E7F0E0808182608083EEE6E2
:1019E000F0E08081816080838AE08093B300109270
:1019F000B2000895AC012091C0043091C1042F5F62
:101A00003F4F03C08FEE80937A008091C004909185
:101A1000C104B901681B790BCB01840F951F80703D
:101A20009078892F99278695882361F30895AC01D2
:101A30002091C0043091C1042F5F3F4F8091C004BA
:101A40009091C104B901681B790BCB01840F951FDC
:101A500080709078892F99278695882379F3089547
:101A600010927C008FEE80937A0008951F920F925F
:101A70000FB60F921124EF92FF920F931F932F93A3
:101A80003F934F935F936F937F938F939F93AF9306
:101A9000BF93CF93DF93EF93FF9310927A008091DF
:101AA000E8048F5F8093E8048150853009F486C094
:101AB000863090F4823009F440C0833030F48823BB
:101AC000F1F0813009F044C22FC0833009F441C0E5
:101AD000843009F03DC25AC0883009F4C2C0893050
:101AE00038F4863009F483C0873009F031C29CC0D5
:101AF000893009F4D3C08A3009F02AC2B1C180917B
:101B00007800909179009093E7048093E60481E057
:101B10008093E9048091E0049091E1040196909310
:101B2000E1048093E00418C28091780090917900DC
:101B30009093E5048093E40492C0809178009091A2
:101B400079009093E3048093E20484E08093E904B5
:101B500003C240910803509109038091780090914D
:101B600079009A01220F331F240F351F63E070E0C4
:101B70000E944F3C260F371F36952795369527959F
:101B8000309309032093080386E0E0CF809102059B
:101B9000909103052091780030917900821B930B7E
:101BA0009093FC078093FB078091FB079091FC07C3
:101BB0009093D3048093D20487E0C8CF80917800BB
:101BC000909179002091000530910105821B930BC3
:101BD0009093070880930608809106089091070863
:101BE0009093D5048093D4041092E904B5C18091F8
:101BF00000012091E6043091E7048A3049F4809195
:101C0000780090917900820F931F9695879506C072
:101C10008091780090917900820F931F9093D10466
:101C20008093D00481E092CF809100012091E40460
:101C30003091E5048A3049F48091780090917900E0
:101C4000820F931F9695879506C08091780090919A
:101C50007900820F931F9093CF048093CE0482E08B
:101C600075CF809100012091E2043091E3048A3025
:101C700049F48091780090917900820F931F969596
:101C8000879506C08091780090917900820F931F0C
:101C90009093CD048093CC0485E058CF6091780078
:101CA00070917900E0900405F0900505009106051B
:101CB00010910705882777FD8095982F0E94093B92
:101CC000A80197010E94093A0E94D63A7093D7045E
:101CD0006093D604E091D604F091D7048091FB077D
:101CE0009091FC07C0910608D091070897FF03C0A8
:101CF000909581959F4F64E070E00E94633C9B014A
:101D0000CE01D7FF03C0909581959F4F64E070E0AE
:101D10000E94633C260F371FE20FF31FF093D70496
:101D2000E093D6048091D6049091D704029704F1F1
:101D30006091040570910505809106059091070555
:101D400020E030E048E454E40E94443B88230CF057
:101D50003CC0609104057091050580910605909145
:101D600007052AE037ED43EA5CE30E940A3A25C002
:101D70008091D6049091D7048F5F9F4F34F5609186
:101D8000040570910505809106059091070520E0F6
:101D900030E046E154E40E94483B1816B4F46091E8
:101DA00004057091050580910605909107052AE0CC
:101DB00037ED43EA5CE30E94093A609304057093AF
:101DC0000505809306059093070581E08093DD0467
:101DD00080917800909179009093FE078093FD07A1
:101DE00020914205309143054091440550914505AD
:101DF0008091D6049091D704AA2797FDA095BA2F79
:101E0000820F931FA41FB51F809342059093430533
:101E1000A0934405B0934505E0904205F09043053A
:101E2000009144051091450560914205709143056C
:101E3000809144059091450520E034E040E050E079
:101E40000E94983CE21AF30A040B150BE09242053B
:101E5000F0924305009344051093450583E076CE48
:101E600080910B0890910C082091780030917900B6
:101E7000820F931F90930C0880930B0880910308A6
:101E80008F5F8093030880910308853008F460C059
:101E9000809178009091790090930F0380930E03C6
:101EA000109203088091FF079091000820910B0881
:101EB00030910C08821B930B2091600530916105D5
:101EC000821B930B9093DF048093DE0420910B0818
:101ED00030910C08E0900A03F0900B0300910C0382
:101EE00010910D03C801B701660F771F881F991F56
:101EF0006E0D7F1D801F911F442737FD4095542F85
:101F0000620F731F841F951F24E030E040E050E013
:101F10000E94983C20930A0330930B0340930C03D8
:101F200050930D032091FF073091000880910A0320
:101F300090910B03A0910C03B0910D03281B390B5A
:101F4000309361052093600510920C0810920B08E5
:101F50001092E9041092E8048091E90480937C00D7
:101F60008091E804882319F08FEE80937A00FF9126
:101F7000EF91DF91CF91BF91AF919F918F917F9121
:101F80006F915F914F913F912F911F910F91FF9012
:101F9000EF900F900FBE0F901F9018950F931F9307
:101FA000CF93DF93A3E0B0E00E94EA3C802DC82FDE
:101FB000D0E0C531D10508F02A97C7BD84E690E08E
:101FC0000E94FA0C80910E0390910F03825593406A
:101FD000C8F4C0E0D0E016C0C7BD82E390E00E9424
:101FE000FA0C1F930F931F920E94C80880910E0352
:101FF00090910F030F900F900F908458934038F0FA
:10200000219602C000E711E0CA3FD10528F3A3E002
:10201000B0E00C2E0E94F23CC09308088CE291E0E4
:102020000E94FA0CDF91CF911F910F910895EAE180
:10203000F3E080E2819383E0EA36F807D1F7089570
:102040001F938091ED04282F30E0C90181709070BA
:10205000682F8823A9F08091EE04882311F0815025
:1020600002C080916A038093EE04EAE1F3E080E22B
:10207000819383E0EA36F807D1F78FEF8093AE04BF
:10208000A9014270507021FF10C08091EE048F5F53
:102090008093EE04EAE1F3E080E2819393E0EA3694
:1020A000F907D1F78FEF8093AE04662321F0452B1B
:1020B00011F01092EE048091EE04282F30E08A3067
:1020C00040F481E18093EC043F932F938FE594E0FB
:1020D00007C080E18093EC043F932F938AE594E05E
:1020E0009F938F9381E08F930E94C8080F900F9069
:1020F0000F900F900F901091EE04153009F403C269
:10210000163090F4123009F4D0C0133030F411239B
:1021100009F1113009F02DC465C0133009F41BC159
:10212000143009F026C46BC1183009F418C31930F3
:1021300038F4163009F4A1C2173009F01AC4EBC202
:102140001A3009F486C31A3008F447C31B3009F06B
:1021500010C4BDC31092EC048AE494E09F938F9363
:1021600011E01F930E94C80884E18093EC04209141
:102170000001822F6AE00E94433C492F50E0822FE9
:102180000E94433C90E024E630E03F932F9324E408
:1021900030E03F932F931F921F925F934F939F9333
:1021A0008F9385E394E09F938F931F930E94C808B9
:1021B00088E28093EC040E94510290E09F938F93F9
:1021C00088E294E09F938F931F930E94C8088CE34A
:1021D0008093EC0488E194E09F938F931F930E9477
:1021E000C808C3C38091490880FF47C01092EC041F
:1021F00080916005909161059F938F9389E094E0B1
:102200009F938F931F930E94C80884E18093EC04EE
:1022100080916205909163059F938F938AEF93E07D
:102220009F938F931F930E94C80888E28093EC04C9
:1022300080910E0390910F039F938F938BEE93E009
:102240009F938F931F930E94C8088CE38093EC04A4
:102250008091080890E09F938F938CED93E09F937B
:102260008F931F930E94C8088DB79EB744960FB6F0
:10227000F8949EBF0FBE8DBF81C384E18093EC04B0
:1022800085ED93E09F938F931F930E94C80888E287
:102290008093EC0487EC93E09F938F931F930E94AD
:1022A000C8088DB79EB70696E2CF1092EC048DEB6E
:1022B00093E09F938F9311E01F930E94C80884E1DD
:1022C0008093EC0460910A0570910B0580910C05D8
:1022D00090910D0520E034E040E050E00E94983CF1
:1022E0005F934F933F932F938EEA93E09F938F9347
:1022F0001F930E94C80888E28093EC046091120545
:1023000070911305809114059091150520E034E03B
:1023100040E050E00E94983C5F934F933F932F938F
:102320008FE993E09F938F931F930E94C8088CE3DB
:102330008093EC0480914605909147059F938F937D
:1023400080E993E09F938F931F930E94C8088DB7F5
:102350009EB746968CCF1092EC048091190890910C
:102360001A0820911708309118089F938F933F9374
:102370002F9380E893E09F938F9311E01F930E9427
:10238000C80884E18093EC0480911D0890911E0898
:1023900020911B0830911C089F938F933F932F939C
:1023A00080E793E09F938F931F930E94C80888E271
:1023B0008093EC04809121089091220820911F08BD
:1023C000309120089F938F933F932F9380E693E063
:1023D0009F938F931F930E94C8088CE38093EC0413
:1023E0008091250890912608209123083091240897
:1023F0009F938F933F932F9380E593E07BC0109240
:10240000EC04E0914208F0E0EE0FFF1FEB5EF74FA7
:1024100020813181E0914108F0E0EE0FFF1FEB5E7B
:10242000F74F808191813F932F939F938F9380E407
:1024300093E09F938F9311E01F930E94C80884E15B
:102440008093EC04E0914408F0E0EE0FFF1FEB5E98
:10245000F74F20813181E0914308F0E0EE0FFF1F3C
:10246000EB5EF74F808191813F932F939F938F93E2
:1024700080E393E09F938F931F930E94C80888E2A4
:102480008093EC04E0914608F0E0EE0FFF1FEB5E56
:10249000F74F20813181E0914508F0E0EE0FFF1FFA
:1024A000EB5EF74F808191813F932F939F938F93A2
:1024B00080E293E09F938F931F930E94C8088CE360
:1024C0008093EC04E0914808F0E0EE0FFF1FEB5E14
:1024D000F74F20813181E0914708F0E0EE0FFF1FB8
:1024E000EB5EF74F808191813F932F939F938F9362
:1024F00080E193E09F938F931F930E94C8088DB74C
:102500009EB74C96B4CE1092EC0482E093E09F9379
:102510008F9311E01F930E94C8080F900F900F90A7
:10252000809100018A3009F04AC084E18093EC0474
:102530004091F6045091F7048091CC049091CD0421
:102540002091F6043091F704821B930B5F934F9315
:102550009F938F9383EF92E09F938F931F930E949B
:10256000C80888E28093EC044091F8045091F90483
:102570008091CE049091CF042091F8043091F90419
:10258000821B930B5F934F939F938F9384EE92E004
:102590009F938F931F930E94C8088CE38093EC0451
:1025A0008091FA049091FB042091B0083091B10819
:1025B0009F938F933F932F9385ED92E055C084E1D5
:1025C0008093EC048091F6049091F70462E070E04F
:1025D0000E94633C8091CC049091CD042091F6043C
:1025E0003091F704821B930B7F936F939F938F938C
:1025F00086EC92E09F938F931F930E94C80888E215
:102600008093EC048091F8049091F90462E070E00A
:102610000E94633C8091CE049091CF042091F804F5
:102620003091F904821B930B7F936F939F938F9349
:1026300087EB92E09F938F931F930E94C8088CE3CF
:102640008093EC048091FA049091FB0462E070E0C6
:102650000E94633C8091B0089091B1087F936F9382
:102660009F938F9388EA92E09F938F931F930E948A
:10267000C8088DB79EB74596FACD1092EC048BE949
:1026800092E09F938F9311E01F930E94C80884E10A
:102690008093EC0480910005909101052091D40471
:1026A0003091D5049F938F933F932F938CE892E0C2
:1026B0009F938F931F930E94C80888E28093EC0435
:1026C00080910205909103052091D2043091D304AA
:1026D0009F938F933F932F938DE792E09F938F93D8
:1026E0001F930E94C8088CE38093EC04609104055A
:1026F0007091050580910605909107050E94D63AD4
:1027000020919808309199087F936F933F932F936E
:102710008EE692E025C184E18093EC048091080369
:10272000909109039F938F938FE592E09F938F93EE
:1027300011E01F930E94C80888E28093EC04809106
:10274000560590E09F938F9380E592E09F938F933F
:102750001F930E94C8088DB79EB70A9688CD109225
:10276000EC0481E492E09F938F9311E01F930E9409
:10277000C80884E18093EC0480914A0590914B0550
:102780009F938F9382E392E09F938F931F930E9476
:10279000C80888E28093EC04809146059091470533
:1027A0009F938F9383E292E09F938F931F930E9456
:1027B000C8088CE38093EC0480914805909149050A
:1027C0009F938F9384E192E09F938F931F930E9436
:1027D000C8088DB79EB742964ACD1092EC048091FE
:1027E0004E0590914F059F938F9388E092E09F93C1
:1027F0008F9311E01F930E94C80884E18093EC043A
:1028000080915005909151059F938F938CEF91E0AB
:102810009F938F931F930E94C80888E28093EC04D3
:1028200080915205909153059F938F9380EF91E093
:102830009F938F931F930E94C8088CE38093EC04AE
:1028400080915405909155059F938F9384EE91E06C
:1028500006CD1092EC048CED91E09F938F9311E0E4
:102860001F930E94C80884E18093EC0480919C032C
:1028700090E09F938F938EEC91E09F938F931F93A3
:102880000E94C80888E28093EC048091C70490916C
:10289000C8049F938F9380EC91E09F938F931F9335
:1028A0000E94C8088CE38093EC042091650830E016
:1028B0008091640890E03F932F939F938F9382EBD6
:1028C00091E09F938F931F930E94C808CDCC1092E4
:1028D000EC0482EA91E09F938F9311E01F930E9492
:1028E000C80884E18093EC0420911A07332727FD60
:1028F000309580911907992787FD90953F932F93E5
:102900009F938F9382E991E09F938F931F930E94EF
:10291000C80888E28093EC0420911B07332727FD29
:10292000309580911C0790E03F932F939F938F9356
:1029300082E891E09F938F931F930E94C8088CE3D5
:102940008093EC042091200730E080911D079927A7
:1029500087FD90953F932F939F938F9382E791E00C
:102960009F938F931F930E94C8088DB79EB7489678
:102970007ECC115010936A031092EE041092ED0475
:102980001F9108951092B9008AE28093B8000895CB
:1029900085EA8093BC0080E090E0089584E980930C
:1029A000BC0008951092B9008093BB0085E8809325
:1029B000BC0080E090E008951F920F920FB60F9236
:1029C00011248F939F93EF93FF938091EF048F5F78
:1029D0008093EF0481508330C1F1843028F481303A
:1029E00091F0823020F50AC08530B9F18530E8F1E8
:1029F0008630D9F1873009F062C046C08091F0047A
:102A0000880F8E5A0CC08091F0048F5F8093F00481
:102A100081502DC0833009F052C08091AA081092D5
:102A2000B9008093BB0085E88093BC0048C084E96E
:102A30008093BC008091F004843018F41092EF046D
:102A400002C01092F00485EAEFCF8091F104880F64
:102A50008D5AE5CF8230A9F0DDCF8091BB00E091A7
:102A6000F104F0E0E35FF74F80838091F10481305F
:102A700029F0813078F780918B08D1CF8091900830
:102A8000CECF8091A808CBCF8091F1049091BB006C
:102A9000E82FF0E0E35FF74F94838F5F8093F104BA
:102AA000843010F01092F10484E98093BC008AE035
:102AB00090E090938603809385031092EF048091B9
:102AC000BC0080688093BC00FF91EF919F918F9133
:102AD0000F900FBE0F901F9018954CEB50E084E9BB
:102AE000DA018C931092EF042BEB30E0F901808136
:102AF0001092F00480E88C931092BD001092BA00FE
:102B00001082E9EBF0E01082A8EBB0E01C9210829A
:102B10008AE28C9385EADA018C931082F9011082A3
:102B200085E88C93089583EC80938100EFE6F0E0D4
:102B30008081806280831092FB041092FA041092CC
:102B4000F9041092F8041092F7041092F604089514
:102B50001F920F920FB60F9211240F931F932F9372
:102B60003F934F935F936F937F938F939F93AF9315
:102B7000BF93CF93DF93EF93FF9320918600309123
:102B800087008091F4049091F504281B390B809103
:102B90008600909187009093F5048093F404C90116
:102BA0008D5494400091F2041091F304835F9A4194
:102BB00060F40430110514F010926B0381E090E092
:102BC0009093F3048093F2048AC00A3011050CF04C
:102BD00086C0C9018B5F9040845B914008F068C05B
:102BE000E901C25DD140F801EE0FFF1FEB5EF74F28
:102BF000808191819E01281B390BC90137FF03C0D9
:102C0000909581959F4F06974CF480915605883C8E
:102C100028F480915605865F80935605F801EE0FE3
:102C2000FF1FEB5EF74F20813181C901880F991F8B
:102C3000820F931F8C0F9D1F64E070E00E94633C25
:102C40009B01CE010196861797071CF42150304056
:102C500006C021976C177D0714F42F5F3F4F8091BA
:102C60005605E801CC0FDD1F833CB8F0FE01EB5E9A
:102C7000F74F80819181A901481B590BCA0163E07C
:102C800070E00E94633CCB01880F991F860F971F4D
:102C9000C55DD74F9983888304C0C55DD74F19821E
:102CA0001882F801EE0FFF1FEB5EF74F3183208390
:102CB000F8013196F093F304E093F204E530F10566
:102CC00011F45D9A06C05D98E630F10511F45C9A46
:102CD00005C05C98379711F45B9A01C05B98FF912F
:102CE000EF91DF91CF91BF91AF919F918F917F91A4
:102CF0006F915F914F913F912F911F910F910F9085
:102D00000FBE0F901F9018952F923F924F925F9297
:102D10006F927F928F929F92AF92BF92CF92DF92EB
:102D2000EF92FF920F931F93CF93DF93CDB7DEB750
:102D300022970FB6F894DEBF0FBECDBF8091FA0484
:102D40009091FB042091D0043091D104821B930B0D
:102D50009093B1088093B0088091CE049091CF04F5
:102D60002091F8043091F904821B930B90938A0808
:102D7000809389088091CC049091CD042091F60431
:102D80003091F704821B930B9093920880939108E3
:102D90008091890890918A089093F2078093F107B7
:102DA000E090AD08F090AE086091D4047091D50425
:102DB000882777FD8095982F2CE030E040E050E0A8
:102DC0000E94243C0027F7FC0095102FE60EF71E0A
:102DD000081F191FC801B70122E030E040E050E0B1
:102DE0000E94983C3093AE082093AD08E090B7085D
:102DF000F090B8086091D2047091D304882777FDD1
:102E00008095982F2CE030E040E050E00E94243C78
:102E10000027F7FC0095102FE60EF71E081F191F5C
:102E2000C801B70122E030E040E050E00E94983C49
:102E30003093B8082093B7082091980830919908EA
:102E40006091D6047091D704882777FD8095982FDC
:102E5000442737FD4095542F620F731F841F951F21
:102E600022E030E040E050E00E94983C3093990826
:102E70002093980840911A0550911B0560911C05FC
:102E800070911D052091D4043091D504C901880F9B
:102E9000991F820F931F880F991F880F991FAA27C8
:102EA00097FDA095BA2F840F951FA61FB71F80937B
:102EB0001A0590931B05A0931C05B0931D05409126
:102EC0001E0550911F0560912005709121052091EC
:102ED000D2043091D304C901880F991F820F931F28
:102EE000880F991F880F991FAA2797FDA095BA2FC1
:102EF000840F951FA61FB71F80931E0590931F0573
:102F0000A0932005B09321056091220570912305BF
:102F10008091240590912505E090FD07F090FE0733
:102F2000A0900405B0900505C0900605D090070557
:102F30000E94093B3B014C010027F7FC0095102F34
:102F4000C801B7010E94093BA60195010E94093AF8
:102F50009B01AC01C401B3010E940A3A0E94D63A17
:102F60006093220570932305809324059093250593
:102F700020913A0530913B0540913C0550913D052B
:102F80008091B0089091B108AA2797FDA095BA2F1B
:102F9000820F931FA41FB51F80933A0590933B05A2
:102FA000A0933C05B0933D0520913E0530913F052F
:102FB00040914005509141058091B0089091B10831
:102FC000AA2797FDA095BA2F820F931FA41FB51FA4
:102FD00080933E0590933F05A0934005B093410533
:102FE000209168052A83222309F069C08091690530
:102FF000882309F064C08091490886FF60C0609111
:103000002A0570912B0580912C0590912D05E0905B
:10301000B008F090B108A0907605BB24CC24DD2444
:103020000027F7FC0095102F20E030E140E050E051
:103030000E94983CC801B7010E94243CA60195015A
:103040000E94243C20E038E040E050E00E94983CA0
:103050002093C5053093C6054093C7055093C80516
:10306000609132057091330580913405909135055A
:10307000E090B008F090B10820E030E140E050E08E
:103080000E94983CCA01B901A60195010E94243C06
:103090000027F7FC0095102FA80197010E94243CFF
:1030A00020E038E040E050E00E94983C2093C105C9
:1030B0003093C2054093C3055093C40510C01092CD
:1030C000C1051092C2051092C3051092C40510925A
:1030D000C5051092C6051092C7051092C8058091CB
:1030E000890890918A082090C5053090C6054090C7
:1030F000C7055090C805820D931D90938A08809350
:1031000089080091890810918A08A090C105B090A3
:10311000C205C090C305D090C40580917705682E84
:10312000772488249924C401B301A60195010E9443
:10313000243C20E032E040E050E00E94983C020F46
:10314000131F10938A080093890820913605309147
:103150003705409138055091390580918908909143
:103160008A08AA2797FDA095BA2F820F931FA41F44
:10317000B51F8093360590933705A0933805B0931B
:1031800039054091320550913305609134057091B5
:1031900035058091890890918A08209164053091C5
:1031A0006505821B930BAA2797FDA095BA2F840F64
:1031B000951FA61FB71F8093320590933305A093E8
:1031C0003405B09335058091320590913305A09177
:1031D0003405B0913505E0908B03F0908C0300919D
:1031E0008D0310918E03E816F9060A071B0704F5F4
:1031F00080E197E2A0E0B0E08E199F09A00BB10B2F
:103200008093320590933305A0933405B093350530
:103210008091320590913305A0913405B091350528
:103220008093360590933705A0933805B093390500
:103230002091320530913305409134055091350588
:1032400088279927DC018E199F09A00BB10B28173D
:1032500039074A075B0704F580EF98EDAFEFBFEF42
:10326000E80EF91E0A1F1B1FE0923205F09233058B
:103270000093340510933505809132059091330504
:10328000A0913405B09135058093360590933705AC
:10329000A0933805B09339058091CE049091CF0466
:1032A0000F9734F488E19CEF90938A088093890803
:1032B0008091CE049091CF04079734F480E398EF87
:1032C00090938A08809389089091000199839A309D
:1032D000A9F48091CE049091CF04835F934034F0A1
:1032E00088EE93E090938A08809389088091CE04B9
:1032F0009091CF048A5F9340DCF014C08091CE049B
:103300009091CF04855E974034F088EE93E09093DF
:103310008A08809389088091CE049091CF04835FBE
:10332000974034F080ED97E090938A088093890865
:1033300080919108909192088A199B099093920824
:10334000809391080091910810919208C401B301F3
:10335000A20191010E94243C20E032E040E050E0D4
:103360000E94983C021B130B109392080093910843
:1033700020912E0530912F05409130055091310557
:103380008091910890919208AA2797FDA095BA2F55
:10339000820F931FA41FB51F80932E0590932F05B6
:1033A000A0933005B093310540912A0550912B052B
:1033B00060912C0570912D05809191089091920853
:1033C0002091660530916705821B930BAA2797FD14
:1033D000A095BA2F840F951FA61FB71F80932A05AB
:1033E00090932B05A0932C05B0932D0580912A0571
:1033F00090912B05A0912C05B0912D05E0908703AD
:10340000F09088030091890310918A03E816F90669
:103410000A071B0704F580E197E2A0E0B0E08E19EF
:103420009F09A00BB10B80932A0590932B05A093C5
:103430002C05B0932D0580912A0590912B05A09124
:103440002C05B0912D0580932E0590932F05A09308
:103450003005B093310520912A0530912B0540911C
:103460002C0550912D0588279927DC018E199F097D
:10347000A00BB10B281739074A075B0704F580EF4B
:1034800098EDAFEFBFEFE80EF91E0A1F1B1FE09289
:103490002A05F0922B0500932C0510932D058091A1
:1034A0002A0590912B05A0912C05B0912D058093B4
:1034B0002E0590932F05A0933005B0933105809190
:1034C000CC049091CD040F9734F488E19CEF909355
:1034D0009208809391088091CC049091CD04079735
:1034E00034F480E398EF9093920880939108998147
:1034F0009A30A9F48091CC049091CD04835F9340DD
:1035000034F088EE93E09093920880939108809134
:10351000CC049091CD048A5F9340DCF014C080917C
:10352000CC049091CD04855E974034F088EE93E012
:1035300090939208809391088091CC049091CD044F
:10354000835F974034F080ED97E0909392088093EA
:1035500091088FEE80937A0080913A0590913B0517
:10356000A0913C05B0913D058093260590932705D9
:10357000A0932805B093290580912A0590912B05E9
:10358000A0912C05B0912D0580930A0590930B0511
:10359000A0930C05B0930D058091320590913305F1
:1035A000A0913405B09135058093120590931305D1
:1035B000A0931405B093150580912E0590912F05C9
:1035C000A0913005B091310580930E0590930F05C1
:1035D000A0931005B09311058091360590913705A1
:1035E000A0913805B0913905809316059093170581
:1035F000A0931805B09319058091490887FF63C00F
:103600002A81222309F05FC080916905882309F08F
:103610005AC08091910890919208893C91055CF084
:103620002091910830919208809191089091920890
:103630002052334011C08091910890919208885394
:103640009F4FA4F4209191083091920880919108A5
:1036500090919208205E3C4F880F991F880F991F08
:10366000280F391F30939208209391088091890880
:1036700090918A08893C91055CF0209189083091ED
:103680008A088091890890918A082052334011C09D
:103690008091890890918A0888539F4FA4F42091C3
:1036A000890830918A088091890890918A08205E63
:1036B0003C4F880F991F880F991F280F391F30938F
:1036C0008A082093890820914E0530914F058091FA
:1036D0004508E82FF0E0EE0FFF1FEB5EF74F80810B
:1036E000918182599F4F281739071CF42F5F3F4F54
:1036F0000CC08081918182599F4F821793074CF4AF
:103700002115310531F02150304030934F05209381
:103710004E05209150053091510580914608E82FC3
:10372000F0E0EE0FFF1FEB5EF74F80819181825931
:103730009F4F281739071CF42F5F3F4F0CC0808123
:10374000918182599F4F821793074CF421153105BF
:1037500031F0215030403093510520935005209195
:1037600052053091530580914708E82FF0E0EE0FA5
:10377000FF1FEB5EF74F8081918182599F4F281781
:1037800039071CF42F5F3F4F0CC080819181825913
:103790009F4F821793074CF42115310531F02150CA
:1037A00030403093530520935205209154053091B9
:1037B000550580914808E82FF0E0EE0FFF1FEB5E03
:1037C000F74F8081918182599F4F281739071CF448
:1037D0002F5F3F4F0CC08081918182599F4F82178C
:1037E00093074CF42115310531F0215030403093CE
:1037F00055052093540580914E0590914F0597FFF4
:1038000005C010924F0510924E050AC08F3F9105DA
:1038100039F034F08FEF90E090934F0580934E0590
:10382000809150059091510597FF05C01092510568
:10383000109250050AC08F3F910539F034F08FEF98
:1038400090E090935105809350058091520590919E
:10385000530597FF05C010925305109252050AC0F8
:103860008F3F910539F034F08FEF90E0909353053E
:1038700080935205809154059091550597FF05C09E
:1038800010925505109254050AC08F3F910539F0EA
:1038900034F08FEF90E09093550580935405229675
:1038A0000FB6F894DEBF0FBECDBFDF91CF911F9151
:1038B0000F91FF90EF90DF90CF90BF90AF909F90CF
:1038C0008F907F906F905F904F903F902F900895D2
:1038D00010927A008091CC049091CD04909392083C
:1038E000809391088091CE049091CF0490938A08A0
:1038F000809389088091D0049091D1049093B1086D
:103900008093B0086091D4047091D504882777FD26
:103910008095982F2CE030E040E050E00E94243C5D
:103920007093AE086093AD086091D2047091D30497
:10393000882777FD8095982F0E94243C7093B808C3
:103940006093B7088091D6049091D704909399081A
:10395000809398088FEE80937A0020914E053091E5
:103960004F0580914508E82FF0E0EE0FFF1FEB5E5A
:10397000F74F8081918182599F4F281739071CF496
:103980002F5F3F4F0CC08081918182599F4F8217DA
:1039900093074CF42115310531F02150304030931C
:1039A0004F0520934E05209150053091510580918F
:1039B0004608E82FF0E0EE0FFF1FEB5EF74F808127
:1039C000918182599F4F281739071CF42F5F3F4F71
:1039D0000CC08081918182599F4F821793074CF4CC
:1039E0002115310531F0215030403093510520939D
:1039F0005005209152053091530580914708E82FDA
:103A0000F0E0EE0FFF1FEB5EF74F8081918182594E
:103A10009F4F281739071CF42F5F3F4F0CC0808140
:103A2000918182599F4F821793074CF421153105DC
:103A300031F02150304030935305209352052091AE
:103A400054053091550580914808E82FF0E0EE0FBD
:103A5000FF1FEB5EF74F8081918182599F4F28179E
:103A600039071CF42F5F3F4F0CC080819181825930
:103A70009F4F821793074CF42115310531F02150E7
:103A80003040309355052093540580914E05909118
:103A90004F0597FF05C010924F0510924E050AC0C2
:103AA0008F3F910539F034F08FEF90E090934F0500
:103AB00080934E05809150059091510597FF05C068
:103AC00010925105109250050AC08F3F910539F0B0
:103AD00034F08FEF90E090935105809350058091E2
:103AE00052059091530597FF05C01092530510920F
:103AF00052050AC08F3F910539F034F08FEF90E006
:103B000090935305809352058091540590915505EB
:103B100097FF05C010925505109254050AC08F3FBB
:103B2000910539F034F08FEF90E090935505809334
:103B3000540560916C0870E080E090E024EC39E07E
:103B400040E050E00E94243C609387037093880318
:103B50008093890390938A0360938B0370938C0303
:103B600080938D0390938E03089580914C088B3F32
:103B700098F08B3F19F480914E050EC08C3F19F4DC
:103B80008091500509C08D3F19F48091520504C001
:103B90008E3F21F480915405809394038091940387
:103BA000882319F41092940304C08F3F11F480937A
:103BB000940380914B088B3F98F08B3F19F48091D0
:103BC0004E050EC08C3F19F48091500509C08D3F01
:103BD00019F48091520504C08E3F21F48091540560
:103BE0008093930380919303882319F41092930395
:103BF00005C0843618F084E68093930380914D08C5
:103C00008B3F98F08B3F19F480914E050EC08C3F8E
:103C100019F48091500509C08D3F19F48091520527
:103C200004C08E3F21F480915405809395038091C8
:103C30009503882319F41092950305C0843618F073
:103C400084E68093950380914F088B3F98F08B3FDB
:103C500019F480914E050EC08C3F19F480915005E7
:103C600009C08D3F19F48091520504C08E3F21F4A4
:103C7000809154058093960380919603882319F4CC
:103C80001092960304C08F3F11F4809396038091A5
:103C900056088B3F98F08B3F19F480914E050EC06B
:103CA0008C3F19F48091500509C08D3F19F4809123
:103CB000520504C08E3F21F48091540580939703F0
:103CC00080919703882319F41092970304C08F3FC3
:103CD00011F480939703809157088B3F98F08B3FA6
:103CE00019F480914E050EC08C3F19F48091500557
:103CF00009C08D3F19F48091520504C08E3F21F414
:103D00008091540580939803809198038B3010F430
:103D10008AE002C08F3F11F4809398038091580885
:103D20008B3F98F08B3F19F480914E050EC08C3F6D
:103D300019F48091500509C08D3F19F48091520506
:103D400004C08E3F21F480915405809399038091A3
:103D50009903882319F41092990304C08F3F11F43A
:103D60008093990380915D088B3F98F08B3F19F405
:103D700080914E050EC08C3F19F48091500509C00A
:103D80008D3F19F48091520504C08E3F21F480913B
:103D9000540580939B0380919B03882319F4109210
:103DA0009B0304C08F3F11F480939B0380915E08B6
:103DB0008B3F98F08B3F19F480914E050EC08C3FDD
:103DC00019F48091500509C08D3F19F48091520576
:103DD00004C08E3F21F48091540580936E0580913C
:103DE0006E05882319F410926E0504C08F3F11F4FC
:103DF00080936E0580915F088B3F98F08B3F19F49C
:103E000080914E050EC08C3F19F48091500509C079
:103E10008D3F19F48091520504C08E3F21F48091AA
:103E2000540580936F0580916F05882319F41092D3
:103E30006F0504C08F3F11F480936F058091600877
:103E40008B3F98F08B3F19F480914E050EC08C3F4C
:103E500019F48091500509C08D3F19F480915205E5
:103E600004C08E3F21F480915405809370058091A9
:103E70007005882319F41092700504C08F3F11F467
:103E800080937005809161088B3F98F08B3F19F407
:103E900080914E050EC08C3F19F48091500509C0E9
:103EA0008D3F19F48091520504C08E3F21F480911A
:103EB00054058093710580917105882319F410923F
:103EC000710504C08F3F11F48093710580917108D2
:103ED0008B3F98F08B3F19F480914E050EC08C3FBC
:103EE00019F48091500509C08D3F19F48091520555
:103EF00004C08E3F21F48091540580937205809117
:103F00007205882319F41092720504C08F3F11F4D2
:103F100080937205809172088B3F98F08B3F19F463
:103F200080914E050EC08C3F19F48091500509C058
:103F30008D3F19F48091520504C08E3F21F4809189
:103F400054058093730580917305882319F41092AA
:103F5000730504C08F3F11F480937305809173083B
:103F60008B3F98F08B3F19F480914E050EC08C3F2B
:103F700019F48091500509C08D3F19F480915205C4
:103F800004C08E3F21F48091540580937405809184
:103F90007405882319F41092740504C08F3F11F43E
:103FA00080937405809174088B3F98F08B3F19F4CF
:103FB00080914E050EC08C3F19F48091500509C0C8
:103FC0008D3F19F48091520504C08E3F21F48091F9
:103FD00054058093750580917505882319F4109216
:103FE000750504C08F3F11F48093750580916208B8
:103FF0008B3F98F08B3F19F480914E050EC08C3F9B
:1040000019F48091500509C08D3F19F48091520533
:1040100004C08E3F21F48091540580939C038091CD
:104020009C03882319F410929C0304C08F3F11F461
:1040300080939C03809167088B3F98F08B3F19F425
:1040400080914E050EC08C3F19F48091500509C037
:104050008D3F19F48091520504C08E3F21F4809168
:10406000540580939D0380919D03882319F4109239
:104070009D0304C08F3F11F480939D0380916A08D3
:104080008B3F98F08B3F19F480914E050EC08C3F0A
:1040900019F48091500509C08D3F19F480915205A3
:1040A00004C08E3F21F48091540580937605809161
:1040B0007605882319F41092760504C08F3F11F419
:1040C0008093760580916B088B3F98F08B3F19F4B5
:1040D00080914E050EC08C3F19F48091500509C0A7
:1040E0008D3F19F48091520504C08E3F21F48091D8
:1040F00054058093770580917705882319F41092F1
:10410000770504C08F3F11F4809377058091700884
:104110008B3F98F08B3F19F480914E050EC08C3F79
:1041200019F48091500509C08D3F19F48091520512
:1041300004C08E3F21F48091540580939E038091AA
:104140009E03882319F410929E0304C08F3F11F43C
:1041500080939E0360919B0370E080E090E00E945A
:104160005C3827E137EB41ED58E30E94C13B609397
:104170008F037093900380939103909392038091A7
:1041800054088093AF088091530880939308089552
:1041900080915F05882301F51092900810928B089A
:1041A0001092A8081092AA088091B004882311F0F8
:1041B00080938B088091B104882311F0809390083C
:1041C0008091B204882311F08093AA088091B304EF
:1041D000882311F08093A80880918B0890E0909339
:1041E000D2078093D1078091900890E09093D407F4
:1041F0008093D3078091AA0890E09093D60780938C
:10420000D5078091A80890E09093D8078093D707AE
:104210001092EF041092F0040E94C81408951092B6
:10422000010510920005109203051092020580E02E
:1042300090E0A0E0B0E08093040590930505A09382
:104240000605B09307051092F7041092F604109239
:10425000F9041092F8041092FB041092FA041092E0
:104260007605109277050E94681C84E690E00E9413
:10427000FA0C0E94681C8091490880FF10C0809150
:104280000E0390910F03875B934038F480910E03E7
:1042900090910F038E5E924010F40E94CE0F809199
:1042A000CC049091CD049093F7048093F604809110
:1042B000CE049091CF049093F9048093F8048091F8
:1042C000D0049091D1049093FB048093FA048091E0
:1042D000F8049091F9049093FD048093FC0480917C
:1042E000F6049091F7049093FF048093FE0444E059
:1042F00050E0DA010E94EA3C802D853038F180914F
:10430000B7089091B80897FF03C0909581959F4F8B
:104310006CE070E00E94633C7093030560930205BB
:104320008091AD089091AE0897FF03C0909581955C
:104330009F4F6CE070E00E94633C709301056093B6
:1043400000056091FD077091FE0739C0DA010E94F7
:10435000EA3C802D4F5F5F4FDA010E94EA3C202D3E
:1043600090E0982F8827820F911D909301058093EC
:1043700000054F5F5F4FDA010E94EA3C802D4F5FDE
:104380005F4FDA010E94EA3C202D90E0982F8827A9
:10439000820F911D90930305809302054F5F5F4F3D
:1043A000DA010E94EA3C602D4F5F5F4FDA010E9404
:1043B000EA3C202D70E0762F6627620F711D88275A
:1043C00077FD8095982F0E94093B609304057093B8
:1043D0000505809306059093070510922A05109213
:1043E0002B0510922C0510922D0510922E0510927F
:1043F0002F0510923005109231051092320510925F
:10440000330510923405109235051092360510923E
:104410003705109238051092390510923A0510921E
:104420003B0510923C0510923D05109292081092A7
:10443000910810928A08109289081092B10810927F
:10444000B00880910A0390910B03A0910C03B091E6
:104450000D03909300088093FF071092DF041092E1
:10446000DE0410924205109243051092440510920A
:1044700045058091460590914705909349058093A5
:1044800048050E94323882E390E09093C6048093FE
:10449000C50460916C0870E080E090E024EC39E0A5
:1044A00040E050E00E94243C6093870370938803AF
:1044B0008093890390938A0360916D0870E080E097
:1044C00090E00E94243C60938B0370938C03809354
:1044D0008D0390938E031092A00310929F03089572
:1044E0001F93182F0EC080915F05882361F484E626
:1044F00090E09093C6048093C5048AEF90E00E94F8
:10450000170D115080F71F91089581E080934108A5
:1045100022E02093420883E08093430854E05093C4
:10452000440845E04093450836E03093460887E06C
:104530008093470888E08093480880EC809349087E
:104540009EE190934A088BEF80934C088AE0809319
:104550004D0890934B0890934F0820934E0820935A
:10456000500850935108309352088FE080935308BD
:104570008AEF809354089093550880E880935608FA
:1045800024E6209357088CE8809358088EE58093A2
:10459000590883E280935A0884E180935B08109263
:1045A0005C0880E180935D0880E580935E0810924E
:1045B0005F081092600810926108109271081092C2
:1045C000720810927308109274082093620888E2AF
:1045D000809363081092760892E39093640886E9CA
:1045E0008093650840936608909367088AE58093F6
:1045F0006808909369081092750880936A08409340
:104600006B0820936C0820936D0880E280936E08FD
:1046100050936F0890937008ABE7B8E0ECE6F3E0D6
:104620008CE001900D928150E1F7089581E0809334
:10463000410882E08093420823E02093430854E03D
:104640005093440845E04093450836E030934608CF
:1046500087E08093470888E08093480880E480934F
:1046600049089EE190934A088BEF80934C088AE0BA
:1046700080934D0890934B0890934F0820934E08D9
:104680002093500850935108309352088FE0809344
:1046900053088AEF809354089093550880E88093DC
:1046A000560890E59093570888E7809358088EE560
:1046B0008093590883E280935A0884E180935B08D1
:1046C00010925C0830E230935D0890935E0810927F
:1046D0005F081092600810926108109271081092A1
:1046E0007208109273081092740824E620936208EE
:1046F00088E2809363081092760892E390936408AE
:1047000086E98093650840936608909367088AE578
:1047100080936808909369081092750880936A08DE
:1047200040936B0820936C0820936D0830936E08BB
:1047300050936F088BE480937008ABE7B8E0E6E72E
:10474000F3E08CE001900D928150E1F7089581E053
:104750008093410882E08093420883E0809343087D
:1047600034E03093440845E04093450886E0809368
:10477000460887E08093470828E02093480880E4B3
:10478000809349089EE190934A088BEF80934C08F0
:104790008AE080934D0890934B0890934F08309394
:1047A0004E0830935008209351088CE080935208B3
:1047B0008FE0809353088AEF8093540890935508B4
:1047C00090E89093560880E58093570856E95093F7
:1047D00058088EE58093590883E280935A0884E153
:1047E00080935B0810925C0880E280935D08909350
:1047F0005E0810925F081092600810926108109293
:10480000710810927208109273081092740824E6CE
:104810002093620888E2809363081092760882E30E
:1048200080936408509365084093660880936708F6
:104830009AE59093680880936908109275089093A0
:104840006A0840936B0820936C0820936D0880E100
:1048500080936E0830936F0820937008ABE7B8E040
:10486000EEE7F3E08CE001900D928150E1F70895BE
:104870002F923F924F925F926F927F928F929F9270
:10488000AF92BF92CF92DF92EF92FF920F931F935E
:10489000CF93DF93CDB7DEB7A6970FB6F894DEBF00
:1048A0000FBECDBF0E948416299A20915D053091DC
:1048B0005E053C872B8737FF02C01C861B868091D4
:1048C0005605843608F05DC080910301882399F471
:1048D00080910403909105038F5F9F4F61F488E9F5
:1048E0009AE39093C6048093C50480E09CE0909383
:1048F0000503809304038091A3059091A40500977C
:1049000031F001979093A4058093A30504C0109201
:104910005F0510924C05809100018A3011F4289AAD
:1049200001C0289880919E0590919F05815D9740D8
:1049300028F180915A08682F70E07C876B8781E0AE
:1049400080934C05E0914108F0E0EE0FFF1FEB5E15
:10495000F74F11821082E0914208F0E0EE0FFF1F46
:10496000EB5EF74F11821082E0914408F0E0EE0F09
:10497000FF1FEB5EF74F118210825DC210925F0540
:104980005AC2809156058D3808F455C210924C05D4
:1049900080915B0822E3829FC00111249093A405BB
:1049A0008093A3058B859C8589976CF080919E05EB
:1049B00090919F05AFEF8F3F9A0729F00196909352
:1049C0009F0580939E0580919E0590919F05883C50
:1049D000910520F0EB85FC85B89704F51092BD0594
:1049E0001092BE051092BF051092C0051092B90535
:1049F0001092BA051092BB051092BC0510923A05B0
:104A000010923B0510923C0510923D0510923E0518
:104A100010923F051092400510924105E091430825
:104A2000F0E0EE0FFF1FEB5EF74F80819181813543
:104A300091050CF458C180915F05882309F053C19A
:104A400080914408E82FF0E0EE0FFF1FEB5EF74F78
:104A5000808191818C3491050CF4BCC08091A205B9
:104A60008F5F8093A205893C08F43DC1299810927C
:104A70005F051092A20510929F0510929E058091ED
:104A80004108282F30E0F901EE0FFF1FEB5EF74FD2
:104A900080819181873491059CF4E0914208F0E097
:104AA000EE0FFF1FEB5EF74F0190F081E02DF7FF57
:104AB00003C0F095E195FF4FE734F1050CF46CC0AD
:104AC00080914208682F70E0DB01AA0FBB1FAB5E2C
:104AD000B74F8D919C911197873491053CF0F90166
:104AE000EE0FFF1FEB5EF74F808191818D919C91BE
:104AF0008734910564F0F901EE0FFF1FEB5EF74F6D
:104B0000808191818734910514F042E001C041E039
:104B1000FB01EE0FFF1FEB5EF74F80819181863422
:104B200091055CF4F901EE0FFF1FEB5EF74F8081FA
:104B30009181873491050CF043E0FB01EE0FFF1FDC
:104B4000EB5EF74F808191818A5B9F4F5CF4F901A6
:104B5000EE0FFF1FEB5EF74F808191818734910547
:104B60000CF044E0660F771F6B5E774FDB018D9191
:104B70009C918A5B9F4F5CF4220F331F2B5E374F53
:104B8000F90180819181863491050CF445E0A2E021
:104B9000B0E0042E0E94F23C8091490880FF10C0D2
:104BA00080910E0390910F03875B934038F48091BE
:104BB0000E0390910F038E5E924010F40E94CE0F70
:104BC0000E94510247E461E478E00E9478020E946A
:104BD0000F2182C080819181855B9F4F0CF081C045
:104BE0008091A2058F5F8093A205893C08F47BC069
:104BF00029988FEF04E010E0D801082E0E94F23CC3
:104C000010925F051092A20510929F0510929E05CA
:104C10000E940F21809100059091010560E071E0F4
:104C20000E94633CD801062E0E94F23C8091000550
:104C30009091010560E071E00E94633C0F5F1F4F9F
:104C4000D801082E0E94F23C809102059091030544
:104C500060E071E00E94633C0F5F1F4FD801062E99
:104C60000E94F23C809102059091030560E071E0A2
:104C70000E94633C0F5F1F4FD801082E0E94F23C38
:104C800060910405709105058091060590910705D6
:104C90000E94D63ADC01CB0160E071E00E94633CE7
:104CA0000F5F1F4FD801062E0E94F23C6091040551
:104CB0007091050580910605909107050E94D63AEE
:104CC000DC01CB0160E071E00E94633C0F5F1F4F8D
:104CD000D801082E0E94F23C0E9451020E947022CC
:104CE00002C01092A205E0914308F0E0EE0FFF1F12
:104CF000EB5EF74F808191818B5A9F4F0CF09BC0E8
:104D000080914408482F50E0FA01EE0FFF1FEB5E40
:104D1000F74F80819181855B9F4F0CF06DC0809132
:104D2000A1058F5F8093A105893C08F467C088ECDA
:104D30008093A10581E090E090939F0580939E056C
:104D400081E080935F051092B5051092B605109230
:104D5000B7051092B80510923A0510923B051092D3
:104D60003C0510923D0510923E0510923F051092B1
:104D700040051092410510922A0510922B051092C1
:104D80002C0510922D0510923205109233051092C9
:104D900034051092350580910A0590910B05A0917C
:104DA0000C05B0910D0580932E0590932F05A093CF
:104DB0003005B09331058091120590911305A091B3
:104DC0001405B09115058093360590933705A0938F
:104DD0003805B09339051092BD051092BE051092AA
:104DE000BF051092C0051092B9051092BA05109235
:104DF000BB051092BC0502C01092A105440F551FBF
:104E00004B5E574FDA018D919C918C3491058CF05B
:104E10008091A0058F5F8093A005893C60F010927F
:104E20005F0588EC8093A00510929F0510929E0567
:104E300002C01092A00580916B03815080936B0398
:104E400080916B038F3F29F080914C05882309F4F2
:104E500052C30E94B51D209057053090580580918F
:104E60004108E82EFF24D701AA0FBB1FAD014B5EFE
:104E7000574FFA010190F081E02DFCA3EBA3809144
:104E80005008482E5524A55DB74F0D90BC91A02D1C
:104E9000BAA3A9A380915108282F30E038A32F8FFF
:104EA0006091590570915A057E8F6D8F80914208EF
:104EB000082F10E0C801880F991FDC01AB5EB74FC7
:104EC0000D90BC91A02DBC8FAB8F855D974FDC0101
:104ED0008D919C919A8F898FE0914408AE2FB0E01C
:104EE000AA0FBB1FAB5EB74F0D90BC91A02DB88F22
:104EF000AF8BE0914308F0E0EE0FFF1FEB5EF74F42
:104F000060807180E8E7F0E06E0E7F1E70925E05B3
:104F100060925D05DA018D919C9120917E05309122
:104F20007F0597FF03C0909581959F4F28173907FC
:104F30008CF4FA018081918190937F0580937E05A6
:104F400097FF0EC0909581959F4F90937F0580931A
:104F50007E0506C02150304030937F0520937E05AA
:104F6000F801EE0FFF1FEB5EF74F808191812091DA
:104F700080053091810597FF03C0909581959F4FE3
:104F80002817390784F4808191819093810580935B
:104F9000800597FF0EC0909581959F4F9093810556
:104FA0008093800506C021503040309381052093C6
:104FB000800580914C05882341F010927F05109266
:104FC0007E0510928105109280056091980370E033
:104FD00080E090E00E945C3820E030E040E251E464
:104FE0000E940A3A20E030E040E85BE30E94C13BC7
:104FF0005B016C016093B2087093B3088093B408AE
:105000009093B5086091990370E080E090E00E9471
:105010005C3820E030EE4BE257E40E946E3A609339
:10502000A4087093A5088093A6089093A7082091E0
:10503000B504222331F08AE090E09093C604809377
:10504000C504E22F22FF09C080916E05482F50E071
:10505000440F551F440F551F10C023FD03C040E0EF
:1050600050E00BC080916E0590E0880F991F880F6B
:10507000991F44275527481B590B209178053091DB
:105080007905C901F3E0880F991FFA95E1F7821BB2
:10509000930B840F951F68E070E00E94633C4B0106
:1050A0007093790560937805E4FF09C080916E05DF
:1050B000482F50E0440F551F440F551F10C0E5FD09
:1050C00003C040E050E00BC080916E0590E0880F77
:1050D000991F880F991F44275527481B590B80910A
:1050E0007A0590917B059C0163E0220F331F6A953E
:1050F000E1F7281B390BCA01820F931F68E070E0AB
:105100000E94633C7EA36DA370937B0560937A0538
:105110008091B404282F83FF03C082E390E004C091
:1051200082FF07C08EEC9FEF90937D0580937C05F6
:1051300004C010927D0510927C0521FF09C080916A
:105140009F039091A00301969093A00380939F03E7
:1051500024FF09C080919F039091A0030197909331
:10516000A00380939F032BA13CA1249DC001259DFA
:10517000900D349D900D11249101220F331F220DAB
:10518000331D820F931F64E070E00E94633C1B019B
:1051900049A15AA16F8D78A1469FC001479F900DEC
:1051A000569F900D1124280E391EC40168E070E04E
:1051B0000E94633C260E371E3092580520925705F8
:1051C000AB8DBC8DA49DC001A59D900DB49D900D8F
:1051D00011242D8D3E8D220F331FED8DFE8D2E0F50
:1051E0003F1F820F931F64E070E00E94633C9B01AD
:1051F000498D5A8D6F8D78A1469FC001479F900DB4
:10520000569F900D1124280F391F8DA19EA168E093
:1052100070E00E94633C260F371F30935A0520939D
:10522000590540917C0550917D058F89988D481BCB
:10523000590B50935C0540935B058091200780FFDC
:1052400054C080916E05813808F44FC080911907D1
:10525000992787FD9095DC01A49DC001A59D900D27
:10526000B49D900D1124280E391E309258052092BD
:10527000570580911A07992787FD9095FC01E49DB9
:10528000C001E59D900DF49D900D1124280F391F4C
:1052900030935A052093590580911B07992787FD64
:1052A0009095480F591F50935C0540935B052091E2
:1052B0004E0830E080911D07992787FD9095AC013D
:1052C000249FC001259F900D349F900D1124909331
:1052D000A00380939F0380911C0790E0861597059B
:1052E00024F490935E0580935D058091490882FFC8
:1052F0000CC080E090E0A0E0B0E08093A408909320
:10530000A508A093A608B093A70820E030E040E0ED
:1053100050E0C601B5010E94443B882364F480E05C
:1053200090E0A0E0B0E08093B2089093B308A0931F
:10533000B408B093B50820E030E040E050E0609160
:10534000A4087091A5088091A6089091A7080E94D2
:10535000443B882364F480E090E0A0E0B0E08093D8
:10536000A4089093A508A093A608B093A708F801F5
:10537000EE0FFF1FEB5EF74F2081318180916808AF
:10538000482F50E04217530744F48091750882FF7C
:1053900004C081E080936A0511C0F801EE0FFF1F81
:1053A000EB5EF74F2081318180916908BA01681B5B
:1053B00071092617370714F410926A05F801EE0FE9
:1053C000FF1FEB5EF74F8081918166277727641B73
:1053D000750B8617970744F48091750883FF04C006
:1053E00081E080936B0515C080916B05882389F05F
:1053F000000F111F0B5E174FD8012D913C9180912A
:10540000690890E0841B950B8217930714F410929F
:105410006B05F701EE0FFF1FEB5EF74F8081918167
:105420004817590744F48091750880FF04C081E053
:1054300080936D0515C080916D05882389F0F70173
:10544000EE0FFF1FEB5EF74F2081318180916908DD
:10545000FA01E81BF1092E173F0714F410926D05AD
:10546000F701EE0FFF1FEB5EF74F808191818617EA
:10547000970744F48091750881FF04C081E0809310
:105480006C0517C080916C05882399F0EE0CFF1C09
:1054900025E138E0E20EF31ED7012D913C91809179
:1054A000690890E0841B950B8217930714F41092FF
:1054B0006C0580916A05882321F480916B0588230F
:1054C00021F081E08093690502C010926905809106
:1054D0006D05882321F480916C05882351F081E0CB
:1054E000809368051092690510926A0510926B0509
:1054F00002C01092680580916905882339F084E61E
:1055000090E09093C6048093C50404C08091680520
:10551000882351F08091670890E0EB85FC858E1719
:105520009F0714F49C878B87F0914C05F983FF2328
:1055300041F110925C0510925B0510925805109293
:10554000570510925A05109259058DEC9CECACEC65
:10555000BDE38093B2089093B308A093B408B093CE
:10556000B5088AE097EDA3EABBE38093A408909383
:10557000A508A093A608B093A708109269051092F9
:10558000680520919C0830919D0840919E0850919B
:105590009F0880910A0590910B05A0910C05B09190
:1055A0000D05820F931FA41FB51F80939C08909335
:1055B0009D08A0939E08B0939F082091A008309169
:1055C000A1084091A2085091A308809112059091E2
:1055D0001305A0911405B0911505820F931FA41F08
:1055E000B51F8093A0089093A108A093A208B09340
:1055F000A308209194083091950840919608509105
:10560000970880910E0590910F05A0911005B0911B
:105610001105820F931FA41FB51F809394089093C8
:105620009508A0939608B093970820918C08309124
:105630008D0840918E0850918F08809116059091A9
:105640001705A0911805B0911905820F931FA41F8B
:10565000B51F80938C0890938D08A0938E08B0930B
:105660008F08209168052A83222329F480916905F7
:10567000882309F460C010921A0510921B0510923D
:105680001C0510921D0510921E0510921F05109208
:1056900020051092210510929C0810929D081092EE
:1056A0009E0810929F081092A0081092A1081092D4
:1056B000A2081092A30810929408109295081092D4
:1056C00096081092970810928C0810928D081092EC
:1056D0008E0810928F0880912A0590912B05A09139
:1056E0002C05B0912D0580932E0590932F05A09346
:1056F0003005B09331058091320590913305A0912A
:105700003405B09135058093360590933705A09305
:105710003805B09339051092E1041092E00410921C
:1057200067051092660510926505109264053A812E
:10573000332309F0F9C080916905882309F0F4C08A
:1057400060910A0570910B0580910C0590910D05F3
:10575000A0905508BB24CC24DD24E090AD08F09047
:10576000AE08A60195010E94983C39014A01002724
:10577000F7FC0095102F6E187F08800A910A60913F
:105780001205709113058091140590911505E09014
:10579000B708F090B808A60195010E94983C5901FD
:1057A0006A010027F7FC0095102FAE18BF08C00A49
:1057B000D10AC401B30120E130E040E050E00E9492
:1057C000983C39014A01C601B50120E130E040E0D2
:1057D00050E00E94983C79018A0180917E05909169
:1057E0007F05409734F48091800590918105409722
:1057F000A4F0C401B30123E030E040E050E00E9497
:10580000983C39014A01C801B70123E030E040E08B
:1058100050E00E94983C79018A01E0914408F0E050
:10582000EE0FFF1FEB5EF74F0190F081E02DF7FFC9
:1058300003C0F095E195FF4F7A97A4F0C401B3013E
:1058400023E030E040E050E00E94983C39014A01FA
:10585000C801B70123E030E040E050E00E94983CEE
:1058600079018A0141E2641671048104910434F0E3
:10587000B0E26B2E712C812C912C11C050EE65166C
:105880005FEF75065FEF85065FEF950644F4A0EEC7
:105890006A2EAFEF7A2EAFEF8A2EAFEF9A2E61E22B
:1058A000E616F1040105110534F0F0E2EF2EF12CBB
:1058B000012D112D11C070EEE7167FEFF7067FEF77
:1058C00007077FEF170744F4E0EEEE2EEFEFFE2E12
:1058D000EFEF0E2FEFEF1E2F80912A0590912B05F1
:1058E000A0912C05B0912D0586199709A809B90931
:1058F00080932A0590932B05A0932C05B0932D053A
:105900008091320590913305A0913405B091350511
:105910008E199F09A00BB10B80933205909333052C
:10592000A0933405B09335058091E0049091E10493
:105930008F3F910509F008F400C58A81882309F09A
:1059400080C480916905882309F07BC460919C081C
:1059500070919D0880919E0890919F0820E031E011
:1059600040E050E00E94983C20939C0830939D08B2
:1059700040939E0850939F086091A0087091A108E1
:105980008091A2089091A30820E031E040E050E02F
:105990000E94983C2093A0083093A1084093A2084D
:1059A0005093A308E0905508FF2400E010E02091F8
:1059B0001A0530911B0540911C0550911D05C80129
:1059C000B7010E94243C20E031E040E050E00E941A
:1059D000983C20931A0530931B0540931C05509367
:1059E0001D0520911E0530911F0540912005509105
:1059F0002105C801B7010E94243C20E031E040E0CD
:105A000050E00E94983C20931E0530931F05409360
:105A10002005509321056091220570912305809106
:105A200024059091250520E031E040E050E00E94FF
:105A3000983C2093220530932305409324055093EE
:105A4000250560919C0870919D0880919E08909119
:105A50009F0820911A0530911B0540911C0550911B
:105A60001D05E0906E08FF2400E010E0621B730B40
:105A7000840B950BA80197010E94983C59016A017B
:105A80002093960530939705409398055093990578
:105A90006091A0087091A1088091A2089091A3083C
:105AA00020911E0530911F05409120055091210540
:105AB000621B730B840B950BA80197010E94983C05
:105AC00019012A01C601B50120E031E040E050E0B3
:105AD0000E94983C89013093670520936605C201B6
