:1000000012C0BBC92AC029C024CA1AC926C025C02B
:1000100006C91BC822C044C620C098C51EC01DC04A
:1000200022CAC2C91AC011241FBECFE5D4E0DEBF68
:10003000CDBF10E0A0E6B0E0EEE9FBE102C0059024
:100040000D92A637B107D9F713E0A6E7B0E001C0DB
:100050001D92A83AB107E1F724C4D2CF20918900BC
:1000600080916300821710F4282FAB9A809187004B
:10007000909188008338910560F01BBC1ABC19BCB4
:1000800018BC13BCAB9A01979093880080938700AB
:100090000895822F99279BBD8ABD99BD88BD23BD38
:1000A000089591E09FBD81E485BD8EE087BB88B354
:1000B000817F88BB9EBD089592B7980F82B7891B38
:1000C00087FDFCCF0895AF92BF92CF92DF92EF925F
:1000D000FF920F931F93CF93DF93182F8CE2A82EDC
:1000E00081E0B82EC12CD12C1092AA00439885E053
:1000F00090E090938A0080938900B0DF18DB88EC51
:1001000090E008D8C12FDD27D0938A00C0938900E2
:10011000EE24FF248701EA14FB040C051D0578F486
:1001200080916D00882311F41BD501C074D784E63B
:10013000C3DF0894E11CF11C011D111DECCFC601A9
:10014000B5012FE030E040E050E007DDA21AB30A2D
:10015000C40AD50A0894A108B108C108D10889E1E8
:10016000A816B104C104D104C8F0E1DA8091AC0052
:100170008F5F8093AC008091AC0066E0CEDC909302
:10018000AC00D9D7D0938A00C093890067DF449B25
:10019000BFCF82B390E8892782BBBACFDF91CF91DE
:1001A0001F910F91FF90EF90DF90CF90BF90AF9095
:1001B0000895CF93C82F7894C150CF3F49F0AB9AA0
:1001C0008CE291E0A7D7AB988CE291E0A3D7F4CF73
:1001D00088EE93E09FD7CF910895CF93DF93EC0102
:1001E00021978FEFCF3FD807B9F0EED78091AD02BE
:1001F0009091AE0288589F4F2091870030918800DF
:100200008217930768F782B3877C82BB88B3817FAC
:1002100088BB81E090E002C080E090E0DF91CF9168
:10022000089501972FEF8F3F9207D9F780E090E074
:1002300008959F92AF92BF92CF92DF92EF92FF927A
:100240000F931F93CF93DF93CDB7DEB725970FB6EC
:10025000F894DEBF0FBECDBF5E010894A11CB11C97
:10026000D501E8E6F0E085E001900D928150E1F7DC
:10027000C82ED82E22E3922EAB9880916100F50112
:10028000E80FF11D8081282F33278CE291E0289F11
:10029000A001299F500D389F500D1124CA013AD753
:1002A000C092AA004398F8948AE0EDD482B3877C88
:1002B00082BB11E01FBD81E485BD8EE087BB88B3A2
:1002C000817F88BB1092860082E390E086DF809178
:1002D000860099279093AE028093AD021092880019
:1002E00010928700949AC39A83E090E076DF882387
:1002F00019F0C12E81E3C7D482B3877C82BB88B357
:10030000817F88BB88EE93E08CDF1092880010928A
:100310008700939AC29A83E090E05FDF882321F000
:1003200092E0C92E82E3AFD482B3877C82BB88B3CC
:10033000817F88BB88EE93E074DF10928800109272
:100340008700949AC19A83E090E047DF882321F0E8
:1003500083E0C82E83E397D482B3877C82BB88B3C3
:10036000817F88BB88EE93E05CDF939AC19A83E03B
:1003700090E033DF882321F003E0C02E87E383D4AD
:1003800082B3877C82BB88B3817F88BB80E197E2A0
:1003900024DFCC2019F08C2D0CDFFDCF8CB1803206
:1003A000B9F41FEFE12EF12EB8E29B2E8FE56BD44E
:1003B00013C0A4E0CA2E84E366D442C0F5E0CF2E79
:1003C00085E361D474C0E6E0CE2E86E35CD4A6C09B
:1003D00078EEE72E73E0F72E1092880010928700D7
:1003E00000E010E00E151F0558F5939A81E090E0AB
:1003F000F4DE82B3877C82BB88B3817F88BB85E0D3
:1004000090E00FDFC39A81E090E0E7DE82B3877C63
:1004100082BB88B3817F88BB8091AD029091AE0290
:10042000890D911D209187003091880082179307D4
:1004300008F4BFCF85E090E0F4DE0F5F1F4FD2CF0E
:1004400080E197E2EEDE109288001092870000E0D3
:1004500010E00E151F0558F5949A81E090E0BDDE7E
:1004600082B3877C82BB88B3817F88BB85E090E0C4
:10047000D8DEC29A81E090E0B0DE82B3877C82BB96
:1004800088B3817F88BB8091AD029091AE02890DC7
:10049000911D20918700309188008217930708F4FE
:1004A0008DCF85E090E0BDDE0F5F1F4FD2CF109261
:1004B00088001092870080E197E2B3DE00E010E050
:1004C0000E151F0558F5959A81E090E086DE82B3FF
:1004D000877C82BB88B3817F88BB85E090E0A1DE0A
:1004E000C19A81E090E079DE82B3877C82BB88B3D9
:1004F000817F88BB8091AD029091AE02890D911DE4
:1005000020918700309188008217930708F45BCF11
:1005100085E090E086DE0F5F1F4FD2CF17B882B321
:10052000877C82BB88B3817F88BB949A959A10920E
:1005300088001092870008E710E0C39A82E090E0FC
:1005400070DE80E090E02ED6C3971CF051E0D52AF3
:1005500002C08EEFD82218BA8CE291E062DE015020
:10056000104017FFEACF82B3877C82BB88B3817FBC
:1005700088BB939A959A04E810E0C29A82E090E0D2
:1005800050DE81E090E00ED6C3971CF0E2E0DE2A58
:1005900002C0FDEFDF2218BA8CE291E042DE01508A
:1005A000104017FFEACF82B3877C82BB88B3817F7C
:1005B00088BB939A949A0EE610E0C19A82E090E08C
:1005C00030DE82E090E0EED5C3971CF044E0D42A00
:1005D00002C05BEFD52218BA8AE491E022DE015016
:1005E000104017FFEACF82B3877C82BB88B3817F3C
:1005F00088BB81E087B9939A08E710E0C29A82E04D
:1006000090E00FDE80E090E0CDD5C3971CF087EF3F
:10061000D82202C0E8E0DE2A18BA8AE491E001DEBE
:100620000150104017FFEACF959A04E810E0C29AF3
:1006300082E090E0F6DD82E090E0B4D5C3971CF054
:10064000FFEDDF2202C040E2D42A18BA88E691E02A
:10065000E8DD0150104017FFEACF82B3877C82BBF0
:1006600088B3817F88BB82B3877C82BB88B3817F5C
:1006700088BB949A0EE610E0C19A82E090E0D1DD4A
:1006800081E090E08FD5C3971CF05FEED52202C0C9
:1006900080E1D82A18BA88E691E0C3DD0150104005
:1006A00017FFEACF82B3877C82BB88B3817F88BB88
:1006B000789480916100A80EB11CF501208184E03E
:1006C00090E0821B91092CE231E0829FA001839F80
:1006D000500D929F500D1124CA011CD58D2D9927C4
:1006E00080FD04C061E0C62E81E405C081FD05C027
:1006F00052E0C52E82E48CB91AC082FD04C043E0EA
:10070000C42E83E4F8CF83FD04C034E0C32E81E619
:10071000F2CF84FD04C025E0C22E82E6ECCF85FD39
:1007200004C096E0C92E83E6E6CFCC2019F088EE0F
:1007300093E0F0D48C2D3DDD8EE2A5D225960FB648
:10074000F894DEBF0FBECDBFDF91CF911F910F9107
:10075000FF90EF90DF90CF90BF90AF909F90089563
:100760008091810090918200892B09F05BC04091BB
:100770007F00509180004115510599F090919400AF
:100780008FEF989FC001112468EC70E0D2D970936C
:100790008C0060938B001092600089B78F7D89BFB9
:1007A00032C08091A000853180F181E080936000AB
:1007B0002091A3003091A40081E02D32380708F089
:1007C0009A01293C310510F028EC30E02B3031053E
:1007D00028F450938C0040938B0015C08CEF90E070
:1007E000289FA001299F500D389F500D1124CA0148
:1007F000885D994064EB70E09CD9CB01039690939F
:100800008C0080938B00AB981AC080918B009091E4
:100810008C00009729F0019790938C0080938B00B7
:10082000AB9A0DC080919D03992790938C00809383
:100830008B0010926000AB9889B78F7D89BF809143
:100840008B0090918C008F3F910539F030F08FEF45
:1008500090E090938C0080938B0080918B0099277F
:100860000895809187009091880090938D038093E4
:100870008C0380918500992790938F0380938E033A
:1008800080917600909177009093910380939003EC
:100890008091A3009091A40090939303809392037E
:1008A0000895CFE5D4E0DEBFCDBFEE2488E084BB61
:1008B00085BB8AEB81BBE2BA8EE087BB81E388BB54
:1008C00082E08093610074D308D47894EADB80E5F9
:1008D00063D598D485E690E009D486E690E006D406
:1008E00087E690E003D4EC018EEF90E0FFD36C013B
:1008F0008DEE93E0FBD38C018EEE93E0F7D303C033
:100900002FDF882321F4CE01FAD38823C9F3979AE5
:1009100010928A0010928900A1DB88E080BF81E0FC
:1009200087B98AE090E0E2D3EC0181E090E0909317
:100930008F0380938E031092A4001092A30010DF07
:10094000882309F476DC81E388BB0ADF992790933A
:100950008A00809389008091AC008E1551F010922E
:100960006400109265008AEF90E0C0D3EC01E09043
:10097000AC008091890090918A00892BD1F410926B
:100980007A0010926500C501BAD38823E9F010926D
:10099000AA00439891E09093640082B3877C82BB65
:1009A0009FBD81E485BD8EE087BB88B3817F88BB16
:1009B0000BC080916400882319F081E080937A0055
:1009C0008CED95E093D35C0180916400882321F045
:1009D00010928A001092890041DB809165008F5F40
:1009E00080936500813009F0B0CF8091640081115F
:1009F000979AC60184D38823A9F182E390E076D345
:100A00006C0180918500482F5527209187003091F7
:100A100088004217530710F48F5F04C0241735076E
:100A200018F48150809385002338310548F0809177
:100A30006300982F929596959770891B8093630019
:100A40008091850090916300823438F0992319F0E9
:100A5000915090936300AB9A05C09F3F19F09F5F40
:100A600090936300C8014BD38823B9F08AE090E0EB
:100A70003DD38C018091780090917900909377001C
:100A80008093760010927900109278008091A100F6
:100A9000882319F481E080936200CE0130D388234B
:100AA00031F08091760090917700892B29F0809128
:100AB0007A00882309F449CF41E0F42EF0926400D3
:100AC0001092AA00439884E690E010D3EC01809144
:100AD0007A00882309F439CFAB9810927A008AE023
:100AE000F2DA979A109264008091AC008150809362
:100AF000AC0081E090E090938A0080938900AEDAA8
:100B000088B18C7F88B9F092AA0088B18A6088B9D0
:100B100084E190E0EBD2EC01CE01F1D28823E1F345
:100B20008FE090E090938A008093890097DA8CE2BE
:100B300091E0DCD2EC01CE01E2D28823E1F382E342
:100B400090E0D4D28C0137E0E32EFFCE1F920F92BB
:100B50000FB60F9211240F900FBE0F901F90189593
:100B60005E9B24C080916D008823E1F48091950004
:100B70009091960001969093960080939500FC01C9
:100B8000E055FD4FE081ED3019F08436910539F4E0
:100B9000109296001092950081E080936D00589A13
:100BA000ECB90895109296001092950008951F9345
:100BB000CF93DF93EC0110E0662309F460C0A22F0D
:100BC000BB271297E42FFF27EA5EFC4F30813D538D
:100BD0004F5FE42FFF27EA5EFC4F50815D534F5F6C
:100BE000E42FFF27EA5EFC4F70817D534F5FE42FB7
:100BF000FF27EA5EFC4FE081ED534F5F842F99277A
:100C0000A817B907E4F1832F9927880F991F880F38
:100C1000991F352F32953F70382B852F99278F706C
:100C2000907054E0880F991F5A95E1F7572F569509
:100C30005695582B872F99278370907026E0880F40
:100C4000991F2A95E1F78E2B61506F3FC1F0FE018D
:100C5000E10FF11D30831F5F61506F3F81F0FE0196
:100C6000E10FF11D50831F5F61506F3F41F0FE01A6
:100C7000E10FF11D80831F5F662309F0A3CFDF9191
:100C8000CF911F910895CF93C82F8A3011F48DE032
:100C9000FADF5D9BFECFCCB980E090E0CF91089564
:100CA0001F920F920FB60F9211242F933F934F93E1
:100CB0005F936F937F938F939F93AF93BF93CF93E4
:100CC000DF93EF93FF938CB18093930040919B004F
:100CD000443610F010929C00509193005D3009F062
:100CE00064C080919C00823009F05FC010929C002B
:100CF000A42FBB27AA5EBC4FFD01329780812091B3
:100D0000970030919800281B3109ED0121978881C7
:100D1000281B3109C9019F70909398008093970018
:100D200066E0969587956A95E1F7982F935C909386
:100D300099002F733070235C20939A00808198175C
:100D400009F082C08881281709F07EC040938D0089
:100D50005C9380911803823549F488E190E02CE09F
:100D60000FB6F894A89581BD0FBE21BD80911803E0
:100D70008ADF80911803843709F066C020918D00C6
:100D800043E064E08EE890E012DF80916100E82F9C
:100D9000FF27E357FF4F80818093940084EF91E019
:100DA0009093800080937F004FC020919C00822F01
:100DB000992781309105F9F0823091051CF4892B37
:100DC00021F040C0029711F13DC080919300833221
:100DD00039F480919200882319F481E080939C007B
:100DE000809193008093160381E080939B00809113
:100DF0009300992722C02F5F20939C00E42FFF27A8
:100E0000EA5EFC4F80919300808309C0E42FFF27A6
:100E1000EA5EFC4F809193008083443620F44F5F5C
:100E200040939B0002C010929C00209193008091FF
:100E3000970090919800820F911D90939800809355
:100E4000970002C010929C00FF91EF91DF91CF912B
:100E5000BF91AF919F918F917F916F915F914F91D2
:100E60003F912F910F900FBE0F901F901895AC01DE
:100E7000A0E0B0E09D01A817B90748F4E0EBF2E06C
:100E80008191280F311D1196A417B507C8F33F7043
:100E9000FD01E055FD4FC90176E0969587957A955D
:100EA000E1F7835C80831196FD01E055FD4F2F73C0
:100EB0003070822F835C8083AF54BD4F8DE08C9364
:100EC00010926D008091B0028CB908951F93CF935A
:100ED000DF93382FEA01722F10E083E28093B00293
:100EE0006093B1023093B202A3E0B0E0772309F43B
:100EF00058C0772311F4972F07C0FE01E10FF11DB1
:100F00001F5F9081715011F4472F0EC0FE01E10F59
:100F1000F11D1F5F4081715039F0FE01E10FF11D9D
:100F20001F5F6081715001C0672FFD01E055FD4FCB
:100F3000892F86958695835C80831196FD01E05507
:100F4000FD4F892F99278370907024E0880F991F97
:100F50002A95E1F755279A0194E0369527959A95B9
:100F6000E1F7822B835C80831196FD01E055FD4FF4
:100F70004F705070440F551F440F551F862F9927EF
:100F800026E0969587952A95E1F7842B835C8083EC
:100F90001196FD01E055FD4F6F73635C6083119600
:100FA000A5CFCD0164DFDF91CF911F910895089502
:100FB00088E18AB9599A579A80E189B960E070E06E
:100FC00083E496E04DD488EC90E090D090931503A4
:100FD000809314038AE057DE82E455DE8CE453DE0E
:100FE0008AE351DE86E54FDE80E34DDE8EE24BDEA6
:100FF00083E349DE86E347DE8AE045DE81E443DEC3
:1010000084E441DE82E53FDE8AE33DDE80916100DB
:10101000805D39DE089580911403909115036FD09F
:10102000882391F080916D00882371F022E24AE7D5
:1010300053E06091AF0284E449DF82E390E056D050
:10104000909315038093140308951F920F920FB687
:101050000F9211248F939F9380919C038F5F8093B5
:101060009C0380919F00815080939F008F3F71F57A
:1010700083E080939F0080919D0090919E00019657
:1010800090939E0080939D008091810090918200BA
:10109000009729F0019790938200809381008091BE
:1010A000A100882331F08091A10081508093A1009C
:1010B00002C08093A00080917F00909180000097F3
:1010C00029F001979093800080937F009F918F91EA
:1010D0000F900FBE0F901F90189582E083BF89B7C5
:1010E000816089BF89B7806489BF089520919D0080
:1010F00030919E00280F391FC90101970895209152
:101100009D0030919E00821B930B892F9927807838
:1011100099270895CF93DF93E9DFEC01CE01EFDF4C
:101120008823E1F3DF91CF91089586EA86B987E0BD
:1011300087B9369A089527B196E097B910BE83ED26
:1011400086B9349A97B9369A349BFECF27B924B121
:1011500035B1220F331F220F331F4091870050916A
:101160008800CA0163E0880F991F6A95E1F7841B24
:10117000950B280F391F83E0369527958A95E1F75F
:1011800030938800209387008091860099278217EA
:10119000930720F4809187008093860016B888E03A
:1011A00080BF0895982F27B187B910BE83ED86B907
:1011B000349A97B9369A349BFECF27B916B888E08F
:1011C00080BF84B195B1089586E0ECDF9C01220FC9
:1011D000331F220F331F293C310510F028EC30E07B
:1011E000309388002093870080918600992782178A
:1011F000930720F4809187008093860016B888E0DA
:1012000080BF08958EB5806C8EBD8EB580648EBD16
:1012100089B7806289BF89B7846089BF08951F92AA
:101220000F920FB60F9211248F938091A2008F5FBF
:101230008093A2008F910F900FBE0F901F90189572
:101240001F920F920FB60F9211242F933F938F93FB
:101250009F930EB406FE0FC01092A20086B597B5FC
:101260009093A6008093A5008EB58F7B8EBD84E6FB
:101270008093A10079C08EB580648EBD26B537B548
:101280008091A5009091A600281B390B8091A200A7
:101290009927982F8827990F280F391F689414F8D9
:1012A000369527951694E1F73093A8002093A70070
:1012B0002851314030F488E191E09093A800809368
:1012C000A7002091A7003091A80028513140309309
:1012D000A8002093A7008091A3009091A4008217FA
:1012E000930730F48091A3009091A40001960CC064
:1012F0008091A3009091A4002817390748F48091A9
:10130000A3009091A40001979093A4008093A30060
:101310002091A3003091A400C901880F991F880F64
:10132000991F880F991F821B930B2091A700309162
:10133000A800820F931F23E0969587952A95E1F7E1
:101340009093A8008093A7009093A4008093A3009B
:101350008091A0008F3F29F08091A0008F5F809343
:10136000A00081E0809362009F918F913F912F9127
:101370000F900FBE0F901F9018951F920F920FB6EF
:101380000F9211248F938AB78F7B8ABF8F910F9012
:101390000FBE0F901F90189590916100990F980FB4
:1013A00092B985EC86BF08951F920F920FB60F92E7
:1013B00011248F939F9381B19927887F90708038F3
:1013C0009105E9F08138910534F40097B1F1803648
:1013D000910579F035C0883B9105D9F0893B91059D
:1013E00024F4883A9105A9F02BC0883F910511F1AA
:1013F00027C086B7806886BF1092A90023C083B13A
:1014000080939D0384EF91E090938200809381000C
:101410000EC09091A900992339F48091850083B979
:101420009F5F9093A90003C08091630083B986B742
:10143000806807C086B7806986BF86B7806986BF27
:1014400085EC86BF9F918F910F900FBE0F901F90DC
:1014500018951F920F920FB60F9211240F900FBE86
:101460000F901F9018951F920F920FB60F92112494
:101470001F932F933F934F935F936F937F938F931C
:101480009F93AF93BF93CF93EF93FF93459B02C07E
:1014900011E001C010E08091AC00992782309105E5
:1014A00009F46FC0833091052CF4009779F001970F
:1014B000A9F11EC18430910509F4B6C084309105AC
:1014C0000CF487C0059709F4D7C012C181E685BD29
:1014D00090916000992321F081EA8FBD88E003C0DC
:1014E00081E08FBD8EE087BB112399F082B3877EA8
:1014F00082BB959A992321F481E090E09DBD8CBD3B
:10150000C1E0C4BD80916200811115DE4098C7B969
:1015100028C082B3877D82BB949AEAC082B3877E5B
:1015200082BB959A90916000112309F581E485BDF5
:10153000992329F081EA8FBD8CE087BB08C081E246
:101540008FBD8EE087BB81E090E09DBD8CBD81E0CA
:1015500084BD809162008111EEDD17B888B183608F
:1015600088B98091AC008F5F8093AC00ABC081E6FE
:1015700085BD992321F081EA8FBD88E0B8C081E064
:10158000B4C081E485BD90916000992321F081EA87
:101590008FBD8CE003C081E28FBD8EE087BB11233D
:1015A00099F082B38F7C82BB939A992321F481E0D6
:1015B00090E09DBD8CBD81E084BD80916200811171
:1015C000BADD82E087B951C082B3877E82BB959A2B
:1015D0008FC082B38F7C82BB939A9091600011235D
:1015E000C9F481E485BD992329F081EA8FBD8AE0A1
:1015F00087BB08C081E88FBD8EE087BB81E090E0AB
:101600009DBD8CBDC1E0C4BD80916200811193DDA0
:10161000C7B9A4CF81E485BD992321F081EA8FBDAC
:101620008CE065C081E261C081E485BD909160007D
:10163000992321F081EA8FBD8AE003C081E88FBD44
:101640008EE087BB112399F082B3877D82BB949A89
:10165000992321F481E090E09DBD8CBD81E084BDA3
:1016600080916200811167DD17B840987ACF82B30C
:101670008F7C82BB939A3CC082B3877D82BB949A55
:1016800090916000112341F581E685BD992329F0F1
:1016900081EA8FBD88E087BB08C081E08FBD8EE006
:1016A00087BB81E090E09DBD8CBD81E084BD8091D1
:1016B0006200811140DD82E087B988B1836088B91A
:1016C0001092AC00809178009091790001969093EF
:1016D0007900809378000CC081E485BD992321F0C6
:1016E00081EA8FBD8AE003C081E88FBD8EE087BBB1
:1016F000459903C0112309F0C9CE459B03C01123AE
:1017000009F4C4CE10926200FF91EF91CF91BF9186
:10171000AF919F918F917F916F915F914F913F9189
:101720002F911F910F900FBE0F901F9018958091D1
:10173000AC0099278230910509F43DC083309105B2
:101740002CF4009779F0019711F1089584309105F8
:1017500009F45EC0843091050CF444C0059709F487
:101760006BC0089581E685BD80916000882321F0DB
:1017700081EA8FBD88E003C081E08FBD8EE087BB2A
:1017800082B3877D82BB949A82E087B927C081E6C5
:1017900085BD80916000882321F081EA8FBD88E0BB
:1017A00003C081E08FBD8EE087BB82B3877E82BBA2
:1017B000959A81E02AC081E485BD809160008823EC
:1017C00021F081EA8FBD8CE003C081E28FBD8EE005
:1017D00087BB82B3877E82BB959A17B888B1836036
:1017E00088B9089581E485BD80916000882321F047
:1017F00081EA8FBD8CE003C081E28FBD8EE087BBA4
:1018000082B38F7C82BB939A82E087B94098089517
:1018100081E485BD80916000882321F081EA8FBD3D
:101820008AE003C081E88FBD8EE087BB82B38F7CE6
:1018300082BB939A81E0A9CF81E485BD809160004D
:10184000882321F081EA8FBD8AE003C081E88FBD43
:101850008EE087BB82B3877D82BB949A17B8D6CFC0
:101860000F931F93CF93DF938C01EB01009711F43B
:10187000672BB9F16EE070E081E090E037D0FC01B9
:10188000892B71F180E88383209771F0D387C28719
:1018900081E8838380919E0390919F03892B21F49B
:1018A000F0939F03E0939E0301151105C9F0118782
:1018B00000878381826083838091A0039091A1033C
:1018C000892B71F4F093A103E093A0038091A2030C
:1018D0009091A303892B21F4F093A303E093A20337
:1018E000CF01DF91CF911F910F9108950F931F9317
:1018F000CF93DF93869F8001879F100D969F100DD9
:101900001124C8010DD0EC01009721F0A80160E07E
:1019100070E0FCD0CE01DF91CF911F910F9108951F
:10192000CF93DF93AC01029710F442E050E020E047
:1019300030E0A091A603B091A703BD01F901109773
:1019400009F44CC08D919C9111978417950731F142
:101950004817590738F42115310519F082179307F4
:1019600008F49C01FD01A281B381109759F721155C
:101970003105A1F1C901841B950B049708F4A90155
:10198000DB01E0E0F0E0109749F18D919C91119717
:1019900082179307F9F44217530779F4ED018A810E
:1019A0009B81309719F09383828304C09093A7039F
:1019B0008093A603CD0102964AC0241B350BFD017E
:1019C000E20FF31F41935193225030402D933C93EB
:1019D000CF013DC0FD01A281B381D5CF8091A40389
:1019E0009091A503892B41F4809171009091720030
:1019F0009093A5038093A403E0916F00F091700091
:101A0000309741F4EDB7FEB7809173009091740068
:101A1000E81BF90BA091A403B091A5039F012A1B19
:101A20003B0B2417350788F0CA010296281739079F
:101A300060F0CD01840F951F02969093A5038093CB
:101A4000A4034D935D93CD0102C080E090E0DF914F
:101A5000CF910895CF93DF93009709F454C0DC0130
:101A60001297ED011B821A828091A6039091A70321
:101A7000009721F1FC0140E050E0EA17FB0718F164
:101A8000ED01FB83EA832D913C911197C20FD31F87
:101A9000CE0102968E179F0771F48A819B81280FD1
:101AA000391F2E5F3F4F11963C932E938281938175
:101AB000FD01938382834115510559F4B093A70327
:101AC000A093A60320C0AF010280F381E02D3097E0
:101AD000A1F6EA01BB83AA83CA0102962881398153
:101AE000820F931F8A179B0771F48D919C91119718
:101AF000280F391F2E5F3F4F39832883FD018281D4
:101B000093819B838A83DF91CF910895DC0101C08B
:101B10006D9341505040E0F70895991B79E004C05F
:101B2000991F961708F0961B881F7A95C9F780951C
:101B30000895AA1BBB1B51E107C0AA1FBB1FA61714
:101B4000B70710F0A61BB70B881F991F5A95A9F766
:101B500080959095BC01CD010895A1E21A2EAA1B93
:101B6000BB1BFD010DC0AA1FBB1FEE1FFF1FA2174D
:101B7000B307E407F50720F0A21BB30BE40BF50B4A
:101B8000661F771F881F991F1A9469F760957095D3
:0E1B9000809590959B01AC01BD01CF01089599
:101B9E00010101FF01010A000000020103016400BE
:061BAE0000A80320000066
:00000001FF
