:1000000012C066C92BC02AC0CBC9C9C827C026C028
:10001000B5C8C2C723C092C621C064C51FC01EC0D8
:100020005DCA6DC91BC011241FBECFE5D4E0DEBF81
:10003000CDBF10E0A0E6B0E0E6E3FBE102C0059032
:100040000D92A637B107D9F713E0A6E7B0E001C0DB
:100050001D92A83AB107E1F7DBD36CCDD1CF209147
:10006000760080916400821710F4AB9A282F80915B
:10007000780090917900893C910560F01BBC1ABC16
:1000800019BC18BC13BCAB9A01979093790080936C
:1000900078000895822F90E09BBD8ABD99BD88BDF0
:1000A00023BD089591E09FBD81E485BD8EE087BBAF
:1000B00088B3817F88BB9EBD089592B7980F292F82
:1000C00082B7821B87FDFCCF089580E090E0089501
:1000D00080917E0090917F00892B09F059C080911A
:1000E000800090918100892B99F090918D008FEF85
:1000F000989FC001112468EC70E0CBDC70938C00F9
:1001000060938B001092670089B78F7D89BF31C0E3
:100110008091A400853178F181E08093670020917F
:10012000A0003091A10041E02D32340730F4293C89
:10013000310540F42B30310538F410928C001092C8
:100140008B0017C028EC30E08CEF90E0AC01249FCE
:10015000C001259F900D349F900D1124885D99401A
:1001600064EB70E096DC6D5F7F4F70938C00609362
:100170008B00AB981AC080918B0090918C000097F7
:1001800029F0019790938C0080938B00AB9A0DC05F
:1001900080919D0390E090938C0080938B0010924F
:1001A0006700AB9889B78F7D89BF80918B00909154
:1001B0008C008F3F910539F030F08FEF90E09093F5
:1001C0008C0080938B0080918B0090E0089580914B
:1001D00078009091790090938D0380938C038091A7
:1001E0007B0090E090938F0380938E038091890031
:1001F00090918A0090939103809390038091A00046
:100200009091A100909393038093920308951F937C
:10021000182F789408C0AB9A8CE291E022D7AB9863
:100220008CE291E01ED71150B0F788EE93E019D719
:100230001F910895CF93DF93EC0117C076D780917B
:10024000AD029091AE0288589F4F20917800309176
:1002500079008217930748F482B3877C82BB88B306
:10026000817F88BB81E090E007C021978FEFCF3F6F
:10027000D80721F780E090E0DF91CF9108958F9229
:100280009F92BF92CF92DF92EF92FF920F931F93B4
:10029000CF93DF93CDB7DEB725970FB6F894DEBFC7
:1002A0000FBECDBFDE011196E8E6F0E085E00190DB
:1002B0000D928150E1F7AB9880916600FE01E80F46
:1002C000F11D818190E02CE231E0AC01429FC00140
:1002D000439F900D529F900D1124C3D61092AC00F5
:1002E0004398F8948AE01DD582B3877C82BB81E075
:1002F0008FBD81E485BD8EE087BB88B3817F88BBDD
:1003000010927A0082E390E095DF80917A0090E08D
:100310009093AE028093AD02109279001092780013
:10032000949AC39A83E090E085DF882311F4BB247C
:1003300004C081E3F6D4BB24B39482B3877C82BB30
:1003400088B3817F88BB1092790010927800939ACD
:10035000C29A83E090E06EDF882321F082E3E1D44B
:10036000B2E0BB2E82B3877C82BB88B3817F88BB1F
:100370001092790010927800949AC19A83E090E0EC
:1003800059DF882321F083E3CCD4A3E0BA2E82B3D3
:10039000877C82BB88B3817F88BB939AC19A83E0B4
:1003A00090E048DF882321F087E3BBD4F3E0BF2E41
:1003B00082B3877C82BB88B3817F88BB80E197E270
:1003C00039DFBB2019F08B2D22DFFDCF8CB18032BD
:1003D00031F0E8EE8E2EE3E09E2E82E306C08FE53C
:1003E000A0D488248A94982C88E2109279001092E4
:1003F000780000E010E0C82EDD24939A81E090E0C0
:1004000019DF82B3877C82BB88B3817F88BBC39AA4
:1004100081E090E00FDF82B3877C82BB88B3817F6D
:1004200088BB76018091AD029091AE028C0D9D1D2E
:1004300020917800309179008217930728F484E3A3
:1004400070D474E0B72E05C00F5F1F4F0815190553
:10045000A1F6109279001092780000E010E0949AD2
:1004600081E090E0E7DE82B3877C82BB88B3817F46
:1004700088BBC29A81E090E0DDDE82B3877C82BBDC
:1004800088B3817F88BB8091AD029091AE028E0DC2
:100490009F1D20917800309179008217930728F4EE
:1004A00085E33FD465E0B62E05C00F5F1F4F0815EA
:1004B0001905A9F6109279001092780000E010E07A
:1004C000959A81E090E0B6DE82B3877C82BB88B3E8
:1004D000817F88BBC19A81E090E0ACDE82B3877CEB
:1004E00082BB88B3817F88BB8091AD029091AE02C0
:1004F0008E0D9F1D2091780030917900821793070F
:1005000028F486E30ED456E0B52E05C00F5F1F4FCA
:1005100008151905A9F617B882B3877C82BB88B382
:10052000817F88BB949A959A1092790010927800F6
:1005300000E010E0FF24C39A80E090E0E5D5C39787
:100540001CF051E0F52A02C08EEFF82218BA0F5FB6
:100550001F4F0937110579F782B3877C82BB88B3B7
:10056000817F88BB939A959A00E010E0C29A81E05F
:1005700090E0CAD5C3971CF042E0F42A02C05DEFB8
:10058000F52218BA0F5F1F4F0538110579F782B3AE
:10059000877C82BB88B3817F88BB939A949A00E062
:1005A00010E0C19A82E090E0AFD5C3971CF084E0E0
:1005B000F82A02C04BEFF42218BA0F5F1F4F0F3614
:1005C000110579F782B3877C82BB88B3817F88BBB2
:1005D00081E087B9939A00E010E0C29A80E090E051
:1005E00093D5C3971CF057EFF52202C088E0F82A94
:1005F00018BA0F5F1F4F0937110579F7959A00E078
:1006000010E0C29A82E090E07FD5C3971CF04FEDD6
:10061000F42202C050E2F52A18BA0F5F1F4F0538C6
:10062000110579F782B3877C82BB88B3817F88BB51
:1006300082B3877C82BB88B3817F88BB949A00E0B9
:1006400010E0C19A81E090E05FD5C3971CF08FEE77
:10065000F82202C040E1F42A18BA0F5F1F4F0F368C
:10066000110579F782B3877C82BB88B3817F88BB11
:10067000789480916600FE01E80FF11D218184E0ED
:1006800090E0821B91092CE231E0AC01429FC00155
:10069000439F900D529F900D1124E3D4F0FC05C0B0
:1006A00081E48CB9BB24B39425C0F1FC05C082E47D
:1006B0008CB942E0B42E1EC0F2FC05C083E48CB9B4
:1006C00033E0B32E17C0F3FC05C081E68CB924E0FB
:1006D000B22E10C0F4FC05C082E68CB995E0B92EAC
:1006E00009C0F5FC05C083E68CB986E0B82E02C0CF
:1006F000BB2019F088EE93E0B4D48B2D88DD8EE218
:1007000010D325960FB6F894DEBF0FBECDBFDF9194
:10071000CF911F910F91FF90EF90DF90CF90BF90FE
:100720009F908F900895AF92BF92CF92DF92EF92F9
:10073000FF920F931F93CF93DF93182F1092AC006B
:10074000439885E090E0909377008093760087DC73
:1007500031D688EC90E085D4C12FD0E0D0937700DB
:10076000C09376001CE2A12E11E0B12EC12CD12C39
:10077000EE24FF2487010EC080916D00882311F4C0
:10078000BBD101C0BCD384E698DC0894E11CF11C09
:10079000011D111DEA14FB040C051D0569F7C601B6
:1007A000B5012FE030E040E050E087D9A21AB30A4B
:1007B000C40AD50A0894A108B108C108D10889E182
:1007C000A816B104C104D104C0F0F4D58091AA00E8
:1007D0008F5F8093AA008091AA0066E04ED9909323
:1007E000AA005DD4D0937700C093760038DC449B98
:1007F000BFCF82B3805882BBBBCFDF91CF911F9117
:100800000F91FF90EF90DF90CF90BF90AF90089541
:10081000AF92BF92CF92DF92EF92FF920F931F930E
:10082000CF93DF9388E084BB85BB8AEB81BB12BA90
:100830008EE087BB81E388BB88B3806C88BBB69BA6
:1008400006C0B79B02C081E007C082E005C0B79B2D
:1008500002C083E001C084E0809366006AD3E4D3E1
:10086000789420DC80E543D57CD485E690E0E5D320
:1008700086E690E0E2D387E690E0DFD3EC018EEFEE
:1008800090E0DBD36C018DEE93E0D7D38C018EEE3C
:1008900093E0D3D303C01CDC882321F4CE01D6D34C
:1008A0008823C9F3979A1092770010927600D7DBCD
:1008B00088E080BF81E087B98AE090E0BED3EC0198
:1008C00081E090E090938F0380938E031092A100BB
:1008D0001092A000FDDB882309F4D1DC81E388BB02
:1008E000EE24F6DB90E09093770080937600809181
:1008F000AA008E1551F010926300109262008AEFE8
:1009000090E09BD3EC01E090AA008091760090915A
:100910007700892BD1F41092860010926200C501F5
:1009200095D38823E9F01092AC00439891E090931E
:10093000630082B3877C82BB9FBD81E485BD8EE06E
:1009400087BB88B3817F88BB0BC0809163008823FD
:1009500019F081E0809386008CED95E06ED35C0108
:1009600080916300882321F0109277001092760026
:1009700076DB809162008F5F80936200813009F0A6
:10098000B0CF809163008111979AC6015FD388230D
:10099000A9F182E390E051D36C0180917B00482F54
:1009A00050E020917800309179004217530710F4FD
:1009B0008F5F04C02417350718F4815080937B00A3
:1009C000293C310548F080916400982F92959695C6
:1009D0009770891B8093640080917B0090916400E4
:1009E000893738F0992319F0915090936400AB9AAD
:1009F00005C09F3F19F09F5F90936400C80126D304
:100A00008823B9F08AE090E018D38C0180918700A8
:100A10009091880090938A008093890010928800BA
:100A2000109287008091A300882319F481E08093BD
:100A30006500CE010BD3882331F08091890090911D
:100A40008A00892B29F080918600882309F449CFF8
:100A5000FF24F394F09263001092AC00439884E674
:100A600090E0EBD2EC0180918600882309F439CF25
:100A7000AB98109286008AE056DE979A1092630037
:100A80008091AA0081508093AA0081E090E0909329
:100A9000770080937600E3DA88B18C7F88B9F09292
:100AA000AC0088B18A6088B984E190E0C6D2EC01DC
:100AB000CE01CCD28823E1F38FE090E090937700D1
:100AC00080937600CCDA8CE291E0B7D2EC01CE01D3
:100AD000BDD28823E1F382E390E0AFD28C0187E0BE
:100AE000E82EFFCE1F920F920FB60F9211240F9097
:100AF0000FBE0F901F9018955E9B24C080916D00D3
:100B00008823E1F480919B0090919C000196909342
:100B10009C0080939B00FC01E055FD4FE081ED308F
:100B200019F08436910539F410929C0010929B00C4
:100B300081E080936D00589AECB9089510929C0062
:100B400010929B0008951F93CF93DF93EC0170E008
:100B5000A22FB0E0129748C0E42FF0E0EA5EFC4F0D
:100B600030814F5FE42FF0E0EA5EFC4F50814F5F31
:100B7000E42FF0E0EA5EFC4F10814F5FE42FF0E0DD
:100B8000EA5EFC4F20814F5F842F90E0A817B907E1
:100B900074F15D53FE01E70FF11D852F82958F7073
:100BA0003D53330F330F382B3083613001F1912FD8
:100BB0009D537F5FFE01E70FF11D71505295507FED
:100BC000892F86958695582B508363506F3F79F017
:100BD0007E5FFE01E70FF11D9295990F990F907CB2
:100BE0002D53922B90837F5F662309F0B5CFDF9161
:100BF000CF911F910895DC0120E030E040E050E00B
:100C000008C0FA01E055FD4F8081280F311D4F5F6C
:100C10005F4F4A175B07A9F73F70C90136E0969509
:100C200087953A95E1F7835CFD01E055FD4F8083A0
:100C300011962F73235CFD01E055FD4F2083AF54C7
:100C4000BD4F8DE08C9310926D008091B0028CB9F5
:100C500008951F93CF93DF93EA01722F93E290934D
:100C6000B0026093B1028093B202A3E0B0E060E012
:100C70004FC0FE01E60FF11D90816F5F715019F4B6
:100C800010E040E00FC0FE01E60FF11D40816F5FF4
:100C9000715011F410E006C0FE01E60FF11D108145
:100CA0006F5F7150892F86958695835CFD01E055B5
:100CB000FD4F808350E09A0184E0369527958A9510
:100CC000E1F7892F90E083709070F4E0880F991F0E
:100CD000FA95E1F7282B235CFD01EF54FD4F2083AB
:100CE000812F82958695869583704F705070440F42
:100CF000551F440F551F842B835CFD01EE54FD4F9F
:100D000080831F73135CFD01ED54FD4F1083149617
:100D1000772309F0AECFCD016EDFDF91CF911F9128
:100D200008951F93182F8A3011F48DE0FADF5D9B30
:100D3000FECF1CB980E090E01F9108951F920F92A2
:100D40000FB60F9211242F933F934F935F936F939E
:100D50007F938F939F93AF93BF93CF93DF93EF9343
:100D6000FF938CB180938E0040919600443610F032
:100D70001092950050918E005D3009F064C0809112
:100D80009500823009F05FC010929500A42FB0E06A
:100D9000FD01EC5EFC4F3081ED01CB5EDC4F288124
:100DA0008091990090919A00831B9109821B91096F
:100DB0009F7090939A00809399009C0196E03695DD
:100DC00027959A95E1F7235C20939800982F9F73BD
:100DD000935C909397008081281709F07CC08881EC
:100DE000981709F078C040939400AA5EBC4F5C93BA
:100DF00080911803823549F488E190E02CE00FB629
:100E0000F894A89581BD0FBE21BD8091180389DF9C
:100E100080911803843709F05EC02091940043E06C
:100E200064E080E990E08FDEE0916600F0E0E15759
:100E3000FF4F808180938D0084EF91E0909381003B
:100E40008093800048C0809195008130D9F0813036
:100E500018F08230F1F521C080918E00833239F490
:100E600080918F00882319F481E080939500809110
:100E70008E008093160381E08093960080918E000F
:100E800090E022C082E080939500E42FF0E0809112
:100E90008E00EA5EFC4F808309C0E42FF0E0809171
:100EA0008E00EA5EFC4F8083443620F44F5F40930F
:100EB000960002C01092950020918E0080919900BA
:100EC00090919A00820F911D90939A0080939900BF
:100ED00002C010929500FF91EF91DF91CF91BF91E9
:100EE000AF919F918F917F916F915F914F913F91C2
:100EF0002F910F900FBE0F901F901895089580911D
:100F0000140390911503A2D0882391F080916D0075
:100F1000882371F06091AF0222E24AE753E084E453
:100F200098DE82E390E089D09093150380931403B8
:100F3000089588E18AB9599A579A80E189B960E0A1
:100F400070E081E996E02ED488EC90E076D0909322
:100F50001503809314038AE0E4DE82E4E2DE8CE48D
:100F6000E0DE8AE3DEDE86E5DCDE80E3DADE8EE2EA
:100F7000D8DE83E3D6DE86E3D4DE8AE0D2DE81E407
:100F8000D0DE84E4CEDE82E5CCDE8AE3CADE809168
:100F90006600805DC6DE08951F920F920FB60F9215
:100FA00011248F939F9380919C038F5F80939C0368
:100FB00080919F00815080939F008F3F71F583E067
:100FC00080939F0080919D0090919E000196909348
:100FD0009E0080939D0080917E0090917F000097FD
:100FE00029F0019790937F0080937E008091A30069
:100FF000882331F08091A30081508093A30002C028
:101000001092A4008091800090918100009729F0B7
:10101000019790938100809380009F918F910F9012
:101020000FBE0F901F90189582E083BF89B7816033
:1010300089BF89B7806489BF089520919D00309150
:101040009E0021503040820F931F089520919D00F3
:1010500030919E00821B930B892F9927807890E016
:101060000895AC0120919D0030919E0021503040A8
:1010700080919D0090919E00B901681B790BCB0176
:10108000840F951F80709078892F9927882381F38A
:10109000089586EA86B987E087B9369A089527B118
:1010A00096E097B910BE83ED86B9349A97B9369A0F
:1010B000349BFECF27B984B195B12091780030914F
:1010C0007900A90163E0440F551F6A95E1F7421BBF
:1010D000530B880F991F880F991F480F591F83E0E2
:1010E000569547958A95E1F750937900409378009B
:1010F00080917A0090E08417950710F440937A006D
:1011000016B888E080BF089527B187B910BE93ED67
:1011100096B9349A87B9369A349BFECF27B916B858
:1011200088E080BF84B195B1089586E0EDDF9C0131
:10113000220F331F220F331F293C310510F028ECFA
:1011400030E0309379002093780080917A0090E02D
:101150008217930710F420937A0016B888E080BFB6
:1011600008958EB5806C8EBD8EB580648EBD89B7B6
:10117000806289BF89B7846089BF08951F920F92EA
:101180000FB60F9211248F938091A2008F5F8093EE
:10119000A2008F910F900FBE0F901F9018951F9275
:1011A0000F920FB60F9211242F933F934F935F939B
:1011B0008F939F930EB406FE0FC01092A20086B5C7
:1011C00097B59093A8008093A7008EB58F7B8EBDB6
:1011D00084E68093A30071C08EB580648EBD86B511
:1011E00097B52091A2004091A7005091A800841BC0
:1011F000950B30E0322F2227330F820F931F689414
:1012000014F8969587951694E1F79093A60080932D
:10121000A5008851914030F488E191E09093A600B8
:101220008093A5004091A5005091A60048515140DF
:101230008091A0009091A1008417950730F48091CF
:10124000A0009091A10001960CC08091A000909107
:10125000A1004817590748F48091A0009091A1007F
:1012600001979093A1008093A0008091A00090919D
:10127000A1009C01220F331F220F331F220F331FA7
:10128000281B390B240F351F83E0369527958A9547
:10129000E1F73093A6002093A5003093A10020939E
:1012A000A0008091A4008F3F29F08091A4008F5F5F
:1012B0008093A40081E0809365009F918F915F915E
:1012C0004F913F912F910F900FBE0F901F90189547
:1012D0001F920F920FB60F9211248F938AB78F7BB4
:1012E0008ABF8F910F900FBE0F901F90189590910D
:1012F0006600990F980F92B985EC86BF08951F92EA
:101300000F920FB60F9211248F939F9381B190E0AB
:10131000887F907080389105C9F08138910534F448
:10132000009791F18036910591F50AC0883B9105AF
:10133000B9F0883F910529F1883A910541F510C02F
:1013400086B7806886BF1092A90023C083B18093BE
:101350009D0384EF91E090937F0080937E000EC008
:101360008091A900882339F480917B0083B981E0C2
:101370008093A90003C08091640083B986B7806818
:1013800007C086B7806986BF86B7806986BF85EC4F
:1013900086BF9F918F910F900FBE0F901F90189551
:1013A0001F920F920FB60F9211240F900FBE0F9045
:1013B0001F9018959091AA009230C9F1933030F4A3
:1013C000992371F0913009F088C01EC0943009F45F
:1013D00058C0943008F43FC0953009F07EC069C011
:1013E00081E685BD80916700882321F081EA8FBD69
:1013F00088E003C081E08FBD8EE087BB82B3877D2C
:1014000082BB949A82E050C081E685BD80916700DE
:10141000882321F081EA8FBD88E002C09FBD8EE065
:1014200087BB82B3877E82BB959A81E027C081E427
:1014300085BD80916700882321F081EA8FBD8CE013
:1014400003C081E28FBD8EE087BB82B3877E82BB03
:10145000959A17B82AC081E485BD809167008823DA
:1014600021F081EA8FBD8CE003C081E28FBD8EE068
:1014700087BB82B38F7C82BB939A82E087B9409806
:10148000089581E485BD80916700882321F081EA79
:101490008FBD8AE003C081E88FBD8EE087BB82B339
:1014A0008F7C82BB939A81E087B988B1836088B9C9
:1014B000089581E485BD80916700882321F081EA49
:1014C0008FBD8AE003C081E88FBD8EE087BB82B309
:1014D000877D82BB949A17B8409808951F920F9207
:1014E0000FB60F9211240F931F932F933F934F9397
:1014F0005F936F937F938F939F93AF93BF93EF937C
:10150000FF9388B190E025E0969587952A95E1F7BD
:10151000082F01709091AA00923009F476C09330A0
:1015200030F4992371F0913009F01DC132C094302C
:1015300009F4BEC0943008F490C0953009F013C18E
:10154000DFC081E685BD90916700992321F081EA93
:101550008FBD88E003C081E08FBD8EE087BB002394
:1015600099F082B3877E82BB959A992321F481E01A
:1015700090E09DBD8CBD11E014BD8091650081118E
:101580008EDD409817B928C082B3877D82BB949ABC
:10159000EAC082B3877E82BB959A209167000023C0
:1015A00051F581E485BD222329F081EA8FBD8CE0CD
:1015B00087BB08C081E28FBD8EE087BB81E090E0F1
:1015C0009DBD8CBD81E084BD80916500811167DD8A
:1015D00017B888B1836088B98091AA008F5F809323
:1015E000AA008091870090918800019690938800CE
:1015F00080938700B8C081E685BD222321F081EA6F
:101600008FBD88E0AFC09FBDACC081E485BD909127
:101610006700992321F081EA8FBD8CE003C081E24D
:101620008FBD8EE087BB002399F082B38F7C82BB95
:10163000939A992321F481E090E09DBD8CBD81E0D7
:1016400084BD8091650081112ADD82E087B951C097
:1016500082B3877E82BB959A86C082B38F7C82BB21
:10166000939A209167000023C9F481E485BD222369
:1016700029F081EA8FBD8AE087BB08C081E88FBD71
:101680008EE087BB81E090E09DBD8CBD11E014BD74
:1016900080916500811103DD17B99BCF81E485BD81
:1016A000222321F081EA8FBD8CE05CC081E258C02A
:1016B00081E485BD90916700992321F081EA8FBD77
:1016C0008AE003C081E88FBD8EE087BB002399F0DC
:1016D00082B3877D82BB949A992321F481E090E0C4
:1016E0009DBD8CBD81E084BD809165008111D7DCFA
:1016F00017B8409871CF82B38F7C82BB939A33C066
:1017000082B3877D82BB949A209167000023F9F40D
:1017100081E685BD222329F081EA8FBD88E087BB61
:1017200008C081E08FBD8EE087BB81E090E09DBD69
:101730008CBD81E084BD809165008111B0DC82E0C8
:1017400087B988B1836088B91092AA004ACF81E432
:1017500085BD222321F081EA8FBD8AE003C081E8A4
:101760008FBD8EE087BB459903C0002309F0C9CE29
:10177000459B03C0002309F4C4CE10926500FF917D
:10178000EF91BF91AF919F918F917F916F915F91F9
:101790004F913F912F911F910F910F900FBE0F907E
:1017A0001F901895EF92FF920F931F93CF93DF93A3
:1017B0008C017B01892B11F4672BC9F16EE070E07D
:1017C00081E090E03BD0FC01009789F1DC0180E8EA
:1017D0008383E114F10471F0F386E28681E8838368
:1017E00080919E0390919F03892B21F4F0939F0396
:1017F000E0939E0301151105E1F0118700878381B5
:10180000826083838091A0039091A103892B89F446
:10181000F093A103E093A0038091A2039091A3030E
:10182000892B39F4F093A303E093A20302C0A0E054
:10183000B0E0CD01E6E0CDB7DEB76DC10F931F93E9
:10184000CF93DF93689F8001699F100D789F100DE3
:101850001124C8010DD0EC01009721F0A80160E02F
:1018600070E004D1CE01DF91CF911F910F910895C7
:10187000CF93DF93AC01029710F442E050E0A091C7
:10188000A603B091A703FD01C0E0D0E020E030E066
:1018900020C0808191818417950769F482819381AA
:1018A000209719F09B838A8304C09093A7038093A9
:1018B000A6039F0132C04817590738F42115310596
:1018C00019F08217930708F49C01EF010280F3815D
:1018D000E02D3097F1F62115310599F1C901841BEE
:1018E000950B049708F4A901E0E0F0E028C08D9181
:1018F0009C91119782179307F9F44817590781F4BF
:10190000ED018A819B81309719F09383828304C013
:101910009093A7038093A6039D012E5F3F4F4CC079
:10192000841B950BFD01E80FF91F4193519302971A
:101930008D939C939F0140C0FD01A281B3811097BC
:10194000B1F68091A4039091A503892B41F4809175
:101950007100909172009093A5038093A40320914D
:101960007300309174002115310549F48DB7282F8B
:1019700030E080916F0090917000281B390BA0918E
:10198000A403B091A5032A1B3B0B2417350790F045
:10199000CA0102962817390768F09D012E5F3F4F54
:1019A000C901840F951F9093A5038093A4034D93C1
:1019B0005C9302C020E030E0C901DF91CF9108952F
:1019C000CF93DF93009709F44EC0EC0122971B825E
:1019D0001A82A091A603B091A703109711F140E0DD
:1019E00050E001C0DC01AC17BD0700F1BB83AA8346
:1019F000FE0121913191E20FF31FEA17FB0771F409
:101A00008D919C911197280F391F2E5F3F4F39837D
:101A10002883FD01828193819B838A83411551052F
:101A200059F4D093A703C093A6031DC0FD01828182
:101A30009381AD010097B1F6FA01D383C28321915E
:101A40003191E20FF31FEC17FD0769F4888199814A
:101A5000280F391F2E5F3F4FFA01318320838A817F
:101A60009B8193838283DF91CF910895DC0101C034
:101A70006D9341505040E0F70895991B79E004C000
:101A8000991F961708F0961B881F7A95C9F78095BD
:101A90000895AA1BBB1B51E107C0AA1FBB1FA617B5
:101AA000B70710F0A61BB70B881F991F5A95A9F707
:101AB00080959095BC01CD010895A1E21A2EAA1B34
:101AC000BB1BFD010DC0AA1FBB1FEE1FFF1FA217EE
:101AD000B307E407F50720F0A21BB30BE40BF50BEB
:101AE000661F771F881F991F1A9469F76095709574
:101AF000809590959B01AC01BD01CF0108952A8886
:101B0000398848885F846E847D848C849B84AA8411
:101B1000B984C884DF80EE80FD800C811B81AA819E
:101B2000B981CE0FD11D0FB6F894DEBF0FBECDBF69
:061B3000ED010895FFCF56
:101B36000A000101FF010101000002010301642006
:061B460000A803000000EE
:00000001FF
